:020000040800F2
:100000006806002089010008D5020008CD0200081A
:10001000D102000843020008CB04000800000000E1
:10002000000000000000000000000000D9020008ED
:100030004702000800000000D7020008C5030008BE
:10004000A3010008A3010008A3010008A301000800
:10005000A3010008A3010008A3010008A3010008F0
:10006000A3010008A3010008A3010008A3010008E0
:10007000A3010008A3010008A3010008A3010008D0
:10008000A3010008A3010008A3010008A3010008C0
:10009000A3010008A3010008A30100084902000809
:1000A000A3010008A3010008A3010008A3010008A0
:1000B0002904000865040008A1040008A301000841
:1000C000A3010008A3010008A3010008A301000880
:1000D000A3010008A3010008A3010008A301000870
:1000E000A3010008A3010008A301000800F002F822
:1000F00000F03AF80AA090E8000C82448344AAF188
:100100000107DA4501D100F02FF8AFF2090EBAE885
:100110000F0013F0010F18BFFB1A43F0010318473B
:100120001404000034040000103A24BF78C878C1D9
:10013000FAD8520724BF30C830C144BF04680C60ED
:10014000704700000023002400250026103A28BF35
:1001500078C1FBD8520728BF30C148BF0B60704739
:100160001FB51FBD10B510BD00F031F81146FFF7E7
:10017000F7FF00F0ACF900F04FF803B4FFF7F2FF1F
:1001800003BC00F057F800000948804709480047C1
:10019000FEE7FEE7FEE7FEE7FEE7FEE7FEE7FEE737
:1001A000FEE7FEE704480549054A064B7047000094
:1001B000C9030008ED000008680000206806002060
:1001C000680200206802002070477047704775463B
:1001D00000F02CF8AE4605006946534620F00700B3
:1001E000854618B020B5FFF7DDFFBDE820404FF091
:1001F00000064FF000074FF000084FF0000B21F011
:100200000701AC46ACE8C009ACE8C009ACE8C009DD
:10021000ACE8C0098D46704710B50446AFF30080C6
:100220002046BDE81040FFF7A8BF00000048704717
:100230000800002001491820ABBEFEE7260002009E
:10024000704700BFFEE7704770B5002400BF0FE0A5
:1002500004EB44010F4A02EB8101486800F022F8E8
:1002600020B12546284600F035F903E0601CC4B2F1
:10027000022CEDD300BF002409E005EB4501054A3F
:1002800002EB8101486800F007F8601CC4B2022C40
:10029000F3D370BDFC0400080149086070470000FA
:1002A00014040140014600200022074B1B6803EAAA
:1002B0000102054B14331B680B4013B10AB1012036
:1002C00000E00020704700000004014000BFFEE78E
:1002D00000BFFEE770477047704710B500F002F8A6
:1002E00010BD00000CB5002001900090334800685C
:1002F00040F480303149086000BF3048006800F4A5
:10030000003000900198401C0190009818B90198A5
:10031000B0F5A06FF1D12948006800F4003010B1A9
:100320000120009001E0002000900098012843D1B6
:100330002348006840F01000214908600846006822
:1003400020F0030008600846006840F002000860E2
:100350001A4840681949486008464068486008469D
:10036000406840F4806048600846406820F47C1093
:1003700048600846406840F4E81048600846006855
:1003800040F08070086000BF0C48006800F000700A
:100390000028F9D00948406820F003000749486068
:1003A0000846406840F00200486000BF03484068CB
:1003B00000F00C000828F9D10CBD0000001002402C
:1003C000002002407047000010B51348006840F05C
:1003D00001001149086008464068104908400E496C
:1003E0004860084600680E4908400B490860084606
:1003F000006820F4802008600846406820F4FE0071
:1004000048604FF41F008860FFF767FF4FF00060FF
:100410000449086010BD0000001002400000FFF811
:10042000FFFFF6FE08ED00E010B500240C4A02EBD9
:10043000041291890A4A02EB0412106800F034F8A1
:1004400060B1002000F04CF8054A02EB04129189DB
:10045000034A02EB0412106800F023F810BD0000FC
:100460001405000810B500240C4A02EB041291890F
:100470000A4A02EB0412106800F016F860B101207D
:1004800000F02EF8054A02EB04129189034A02EBB0
:100490000412106800F005F810BD000014050008F3
:1004A0007047CA430282704730B5024600200023DD
:1004B0000024158A05EA0103958905EA010413B1B0
:1004C0000CB1012000E0002030BD00BFFEE700BFFE
:1004D000FEE700000121014A11547047000000208E
:1004E0000121014A1154704702000020000C014014
:1004F00000010148000C0140000201480108000011
:1005000000010000000C01000109000000020000D1
:10051000000C01000000004088131F1C00000000B8
:10052000010001000004004088131F1C00000000AF
:100530000100010054050008000000200800000030
:10054000280100085C050008080000206006000083
:0C05500044010008000000000000000052
:04000005080000ED02
:00000001FF
