:020000040800F2
:100000005014002009020008110200081302000821
:10001000150200081702000819020008000000007D
:100020000000000000000000000000006501000862
:100030001D02000800000000A9010008151D0008AD
:1000400023020008230200082302000823020008FC
:1000500023020008230200082302000823020008EC
:1000600023020008230200082302000823020008DC
:100070002302000823020008B5020008C10200089C
:1000800023020008230200082302000823020008BC
:1000900023020008230200082302000823020008AC
:1000A000230200082302000823020008230200089C
:1000B000230200082302000823020008230200088C
:1000C000230200082302000823020008230200087C
:1000D000230200082302000823020008230200086C
:1000E0002302000823020008230200080000000089
:1000F0000000000000000000000000000000000000
:100100000000000000000000230200082302000895
:10011000230200082302000823020008ED1D000846
:10012000230200082302000823020008230200081B
:10013000230200082302000823020008230200080B
:1001400023020008230200082302000823020008FB
:10015000DFF80CD000F09CF8004800472921000887
:1001600050140020204B19680868B0E8F00F80F3A5
:100170000988BFF36F8F4FF0000080F311884EF0B5
:100180000D0E70470000000006480068006880F30C
:10019000088862B661B6BFF34F8FBFF36F8F00DF81
:1001A00000BF00BF08ED00E0EFF30980BFF36F8FE1
:1001B0000D4B1A6820E9F00F106008B54FF05000A1
:1001C00080F3118802F02AFA4FF0000080F31188C2
:1001D000BDE8084019680868B0E8F00F80F30988A6
:1001E000BFF36F8F704700BF38000020EFF311801E
:1001F0004FF0500181F31188704780F311887047E8
:10020000EFF3058070470000064880470648004726
:10021000FEE7FEE7FEE7FEE7FEE7FEE7FEE7FEE7B6
:10022000FEE7FEE7991D00085101000810B5431ACA
:10023000934209D28318881803E010F8011D03F8CF
:10024000011D521EF9D210BD40EA01039B0703D0E5
:1002500009E008C9121F08C0042AFAD203E011F805
:10026000013B00F8013B521EF9D210BDD2B201E0B1
:1002700000F8012B491EFBD270470022F6E710B5AB
:1002800013460A4604461946FFF7F0FF204610BD04
:10029000064C074D06E0E06840F0010394E80700D3
:1002A00098471034AC42F6D3FFF756FF902A000867
:1002B000B02A0008014800F02FB8000028010020F3
:1002C000014800F029B80000F000002010B504003B
:1002D00002D0607910B106E0012010BD002020712D
:1002E000204600F005F801206071002010BD0000DC
:1002F00008B500680649884208D10648416941F0BE
:1003000040014161406900F04000009008BD0000DC
:1003100000300240001002402DE9F05F0446F94A27
:10032000F84DF84EF74F0068DFF8D893DFF8D4A304
:10033000DFF8D0B3D114783D643E503F4FF4000E47
:100340004FF4004C4FF40028A9F13C09AAF1280A07
:10035000ABF1140B904221D9EB4A1368A8420FD09D
:10036000B0420FD0B84213D0484513D0504513D0F7
:10037000584501D1724624E0E34A083290423CD10C
:1003800008221EE080221CE0DF4A3032904239D140
:100390000A4616E0624614E0424612E0D94A803A24
:1003A0001368A842ECD0B042ECD0B842F0D0484537
:1003B000F0D05045F0D05845DCD0D24A9042DBD145
:1003C0000205134279D00268D243120775D402683D
:1003D00022F008020260CB4A2068904232D9A8423B
:1003E00019D0B0421DD0B84228D0484523D050453E
:1003F00023D058450BD1714620E0C34A1C329042AD
:10040000C2D1BFE7C04A44329042C5D1C2E7BE4A1A
:100410000832904201D1082110E0BB4A1C329042C0
:1004200001D180210AE0B84A3032904206D0B64964
:100430004431884201D1614600E04146B248001D86
:1004400001602CE0A84214D0B04218D0B84223D0AA
:1004500048451ED050451ED0584501D171461BE07D
:10046000904202D14FF0006116E0A74A0832904254
:1004700001D1082110E0A44A1C32904201D1802110
:100480000AE0A14A3032904206D09F494431884266
:1004900001D1614600E041469A4880384160606B76
:1004A00040F001006063042084F82100002084F8FB
:1004B0002000216B09B120468847924A2068111517
:1004C0004FF4800E4FF4804C4FF48028904221D995
:1004D0008D4A1368A8420FD0B0420FD0B84213D053
:1004E000484513D0504513D0584501D1724624E0F9
:1004F000854A083290423FD104221EE040221CE08F
:10050000814A303290423CD10A4616E0624614E0FD
:10051000424612E07B4A803A1368A842ECD0B042CF
:10052000ECD0B842F0D04845F0D05045F0D0584516
:10053000DCD0744A9042DBD1C204134275D0026809
:10054000D243520771D40268920603D4026822F0A3
:10055000040202606B4A2068904232D9A84219D046
:10056000B0421DD0B84228D0484523D0504523D0B2
:1005700058450BD1714620E0634A1C329042BFD1EE
:10058000BCE7614A44329042C2D1BFE75E4A0832BA
:10059000904201D1042110E05B4A1C32904201D10B
:1005A00040210AE0584A3032904206D05649443140
:1005B000884201D1614600E041465348001D016078
:1005C0002CE0A84214D0B04218D0B84223D04845FD
:1005D0001ED050451ED0584501D171461BE09042B7
:1005E00002D14FF0806116E0474A0832904201D1B3
:1005F000042110E0444A1C32904201D140210AE01B
:10060000414A3032904206D03F494431884201D1BC
:10061000614600E041463B4880384160112084F843
:100620002100E16A09B120468847364A2068511501
:100630004FF4005C4FF4003E904228D9324B1B68C7
:10064000A84212D0B04213D0B8421AD048451AD0AE
:1006500050451AD0584502D14FF400182AE0DFF86F
:10066000A88008F10808404544D14FF0020821E075
:100670004FF020081EE0DFF8908008F13008404578
:1006800044D1884616E0E04614E0F04612E01D4BE7
:10069000803B1B68A842E8D0B042E9D0B842F0D015
:1006A0004845F0D05045F0D05845D5D09042D6D1ED
:1006B0004FF0007813EA080F70D00368DB439B0704
:1006C0007FD403689B0603D4036823F0020303600E
:1006D0002068904239D9A84221D0B04225D0B842F2
:1006E0002FD048452AD050452AD0584513D14FF431
:1006F000001126E0DFF8108008F11C084045BAD14F
:10070000B6E700008000024000040240DFF8B88035
:100710004045BAD1B7E72C4A3C3A904201D1022178
:100720000FE0294A283A904201D1202109E0264AC7
:10073000143A904205D02449884201D1614600E034
:1007400071462148403801602CE0A84215D0B042E3
:1007500019D0B84224D048451ED050451FD0584526
:1007600002D14FF400111BE0904202D14FF0007112
:1007700016E0154A3C3A904201D1022110E0124A9B
:10078000283A904201D120210AE00F4A143A9042BF
:1007900006D00D49884202D1614601E011E0714660
:1007A0000A484160606B6063012084F821000020EA
:1007B00084F82000A16A002903D02046BDE8F05F3C
:1007C0000847BDE8F09F00004404024000000240DA
:1007D00070B520B190F82110002411B103E0012080
:1007E00070BD80F82040022180F8211003681A684B
:1007F00043F6F0718A43D0E901152943D0E9035645
:10080000354329434569294385692943C5692943F6
:10081000114319604463012180F82110002070BD4C
:1008200031B500F0EDF8044600F0EAF80099001B3D
:100830008842F9D338BD00002DE9F84FDFF890A1C8
:1008400000220AF1040B144601274FF00F090BF1A7
:10085000040E00BF0B6807FA04F52B40AB4274D1BD
:10086000DFF870C14E68A6EB0C0866452BD00DDC96
:10087000032E34D005DC36B3012E19D0022E2FD131
:100880001BE0112E16D0122E2AD119E0B8F5881FC0
:1008900019D006DCB8F5803F15D0B8F5801F1FD100
:1008A00011E0B8F5001F0ED0B8F5041F18D10AE00A
:1008B000CA6815E0CA68121D12E0CA6808320FE063
:1008C000CA680C320CE08A682AB1012A4FF008028B
:1008D00003D0456104E0042202E0056100E000224B
:1008E000FF2B01D8064601E000F104064FEA84051B
:1008F00001D9A5F12005D6F800C009FA05F82CEABF
:10090000080C02FA05F54CEA050CC6F800C04D6863
:10091000ED0057D5304DAE6946F00106AE61AD69C8
:1009200024F0030605F0010500952C4D06EB050C9F
:10093000DCF80850A6074FEA167809FA08F6B5431E
:10094000274EB04202D1002610E03BE0254EB042D7
:1009500001D101260AE0244EB04201D1022605E071
:10096000224EB04201D1032600E0042606FA08F622
:100970002E43CCF808604D68DAF80060ED03554668
:1009800001D51E4300E09E432E604D68DBF80060F9
:10099000AD035D4601D51E4300E09E432E604D68C9
:1009A000DEF80060ED02754601D51E4300E09E436F
:1009B0002E604D68AD020E4D2E6801D51E4300E03D
:1009C0009E432E60641C102CFFF444AFBDE8F88FEA
:1009D000000401400000111000100240000001401E
:1009E00000080140000C01400010014000140140CB
:1009F0000C0401400AB1016170470904FBE70000E3
:100A000001480068704700000400002002480168A7
:100A1000491C01607047000004000020074810B521
:100A2000016841F010010160032000F0A5F80020EA
:100A300000F006F800F03EF8002010BD0020024053
:100A400000B5014687B00022372000F075F8372046
:100A500000F066F81348C16941F02001C161C06926
:100A600005A900F020000690684600F0DBF900F0D0
:100A700013FA0D494000B0FBF1F10D480B4A491E35
:100A80000260416040F2E7320021C0E90321816049
:100A900000F08FFE10B1012007B000BD044800F047
:100AA000A4FEF9E70010024040420F00001400408D
:100AB00074000020184808B5816941F00101816186
:100AC000806900F001000090032000F055F800223A
:100AD00011466FF00B0000F02FF8002211466FF066
:100AE0000A0000F029F8002211466FF0090000F01A
:100AF00023F800221146101F00F01EF800220F21DB
:100B0000501E00F019F80548416821F0E06141F0FD
:100B10000071416008BD000000100240000001406B
:100B200000F01F02012191404009800000F1E02007
:100B3000C0F8001170470000F0B40E4B1B680C4663
:100B4000C3F30223C3F10705042D00D90425191DA1
:100B5000072901D2002300E0DB1E012606FA05F179
:100B6000491E214099409E40761E16403143F0BCFC
:100B700001F09CB80CED00E0064900F0070208689F
:100B80004FF6FF03184040EA0220034A1043086072
:100B9000704700000CED00E00000FA052DE9F04779
:100BA000DFF8789205460E46D9F80000022300F0DF
:100BB0000707012041044206994C41F28838B742A8
:100BC00071D2D9F800C02CF0070C4CEA060CC9F819
:100BD00000C0D9F8007007F00707B7426FD12E7830
:100BE000B60705D56668AF6826F0F0063E43666036
:100BF0002E78F60756D06E68012E0BD0022E1ED02E
:100C000093FAA3F1B1FA81F141F02001490924D00E
:100C1000216823E091FAA1F2B2FA82F242F02002B6
:100C2000520901D0226800E0626A91FAA1F1B1FA9A
:100C300081F101F01F018840024240D017E092FA92
:100C4000A2F1B1FA81F141F02001490901D02168F6
:100C500000E0616A92FAA2F202E0616A93FAA3F2FA
:100C6000B2FA82F202F01F029040014227D060687F
:100C700020F0030030436060FFF7C2FE064668685C
:100C8000012809D00228474613D01EE0FFF7B8FE1E
:100C9000801BB84201D992E047466068C0F38100EA
:100CA0000128F3D1A1E015E0FFF7AAFE801BB842AE
:100CB00073D86068C0F381000228F5D195E092E016
:100CC000FFF79EFE801BB84279D8606810F00C0FC9
:100CD000F6D18AE02F78BF0707D56768D5F808C036
:100CE00027F0F00747EA0C0767602F78FF076DD001
:100CF0006F68012F0BD0022F1ED093FAA3F1B1FA27
:100D000081F141F02001490924D0216823E091FAC2
:100D1000A1F2B2FA82F242F02002520901D0226816
:100D200000E0626A91FAA1F1B1FA81F101F01F01CC
:100D30008840024257D017E092FAA2F1B1FA81F14D
:100D400041F02001490901D0216800E0616A92FA6E
:100D5000A2F202E0616A93FAA3F2B2FA82F202F01E
:100D60001F02904001423ED0606820F003003843EB
:100D70006060FFF745FE07466868012807D0022833
:100D800011D01FE0FFF73CFEC11B414517D860683A
:100D9000C0F381000128F5D118E010E0FFF730FE24
:100DA000C11B41450BD86068C0F381000228F5D112
:100DB0000CE000BFFFF724FEC11B414502D9032010
:100DC000BDE8F087606810F00C0FF3D1D9F800107F
:100DD00021F007013143C9F80010D9F8000000F0F4
:100DE0000700B04201D00120EAE72878400705D586
:100DF0006068E96820F4E0600843606028780007D4
:100E000006D56068296920F4605040EAC10060603E
:100E10000020FFF715FE0020D2E70000002002406E
:100E2000001002400F2202600C4A536803F00303D3
:100E30004360536803F0F0038360536803F4E06396
:100E4000C36052684FF4E06303EAD20202610448CF
:100E5000006800F0070008607047000000100240C2
:100E60000020024000B500F043F808494968F0222C
:100E700092FAA2F201F0F001B2FA82F2D140044AF1
:100E8000515CC8400349086000BD000000100240EA
:100E90001C2A00080000002000B5FFF7E3FF074907
:100EA00049684FF4E06292FAA2F201F4E061B2FA0A
:100EB00082F2D140024A515CC84000BD001002409D
:100EC0001C2A000800B5FFF7CDFF074949684FF419
:100ED000605292FAA2F201F46051B2FA82F2D14069
:100EE000024A515CC84000BD001002401C2A0008A4
:100EF000F0B52DA28AB007CA8DE807002DA103AC7A
:100F00000FC984E80F002F494B682F4803F00C02EB
:100F1000042A02D0082A02D02C480AB0F0BD4FF4AF
:100F2000701595FAA5F403F47012B4FA84F4E24053
:100F30006E461DF80220DB0333D5CB6A0F2494FAEA
:100F4000A4F403F00F03B4FA84F4E34003ACE45CCC
:100F5000CB6ADB0316D5CB6AF02797FAA7F703F025
:100F6000F003B7FA87F7C96AFB40AF1297FAA7F701
:100F700001F47061B7FA87F7F9405B1CB0FBF3F03E
:100F8000891C4843B0FBF4F095FAA5F350434FF4A5
:100F90005011B3FA83F3D940715C9142BDD140083E
:100FA000BBE70B485043B8E70000040506070809F3
:100FB0000000000D0102030405060708090A0B0CD6
:100FC0000D0E0F100010024040787D0100127A00D3
:100FD00000093D002DE9F84F04460078FC4DC0079C
:100FE0004FF0010625D068687704C0F3810001281E
:100FF00007D06868C0F3810002281BD16868C0036D
:1010000018D597FAA7F0B0FA80F040F02000400918
:1010100001D0286800E0686A97FAA7F1B1FA81F177
:1010200001F01F0106FA01F1084202D0A068002871
:1010300076D081E0286820F480302860286820F489
:1010400080202860FFF7DCFC804605E0FFF7D8FC35
:10105000A0EB080064287DD897FAA7F0B0FA80F0DA
:1010600040F02000400901D0286800E0686A97FA43
:10107000A7F1B1FA81F101F01F0106FA01F108426E
:10108000E4D1A068B0F5803F0BD010B1B0F5A02F2F
:1010900011D0286820F480302860286820F480204F
:1010A00002E0286840F480302860A06820B3FFF791
:1010B000A7FC80460AE0286840F480202860F0E71A
:1010C000FFF79EFCA0EB08006428C4D897FAA7F0AD
:1010D000B0FA80F040F02000400901D0286800E01C
:1010E000686A97FAA7F1B1FA81F101F01F0106FAD7
:1010F00001F10842E4D01FE0FFF782FC804605E0E2
:10110000FFF77EFCA0EB08006428A4D897FAA7F0AC
:10111000B0FA80F040F02000400902D0286801E0D9
:10112000B8E0686A97FAA7F1B1FA81F101F01F01FE
:1011300006FA01F10842E3D12078A64F80074FF06C
:1011400002084FF000095BD568684FF0F80B10F00B
:101150000C0F00E01DE207D06868C0F38100022890
:101160001BD16868C00318D498FAA8F0B0FA80F0D0
:1011700040F02000400901D0286800E0686A98FA31
:10118000A8F1B1FA81F101F01F0106FA01F108425C
:101190002BD0606901287DD127E0606988B396FA79
:1011A000A6F0B0FA80F047F82060FFF729FC8246ED
:1011B00006E000BFFFF724FCA0EB0A00022884D859
:1011C00098FAA8F0B0FA80F040F02000400901D071
:1011D000286800E0686A98FAA8F1B1FA81F101F094
:1011E0001F0106FA01F10842E4D028689BFAABF22D
:1011F000A169B2FA82F220F0F80091400843286019
:1012000025E0FFE796FAA6F1B1FA81F147F82190BF
:10121000FFF7F6FB824605E0FFF7F2FBA0EB0A00C2
:101220000228CCD898FAA8F0B0FA80F040F020005C
:10123000400901D0286800E0686A98FAA8F1B1FA7C
:1012400081F101F01F0106FA01F10842E4D1207892
:1012500000076FD5E069C0B396FAA6F0B0FA80F047
:1012600007EB8000C0F88064FFF7CAFB824605E008
:10127000FFF7C6FBA0EB0A000228A0D898FAA8F155
:10128000B1FA81F141F060014046B6EB511F02D145
:1012900029680CE0A0E190FAA0F1B1FA81F141F0E7
:1012A0006001B0EB511F01D1296A00E0696A98FA28
:1012B000A8F0B0FA80F000F01F0206FA02F0014236
:1012C000D6D00120FFF7ACFA34E0FFE796FAA6F19A
:1012D000B1FA81F107EB8101C1F88094FFF790FB2F
:1012E000824605E0FFF78CFBA0EB0A00022898D8A5
:1012F00098FAA8F1B1FA81F141F060014046B6EBED
:10130000511F01D129680BE090FAA0F1B1FA81F1E7
:1013100041F06001B0EB511F01D1296A00E0696A18
:1013200098FAA8F0B0FA80F000F01F0206FA02F076
:101330000142D7D12078400773D5E86940F080504A
:10134000E861E869DFF890B000F080500090DBF8C9
:10135000001041F48071CBF80010FFF751FB82467A
:1013600006E000BFFFF74CFBA0EB0A00642884D81E
:10137000DBF80000C005F5D5286A20F001002862DE
:10138000286A20F004002862FFF73AFB834641F206
:10139000883A05E0FFF734FBA0EB0B015145A6D8D6
:1013A00098FAA8F1B1FA81F141F040014046B6EB5C
:1013B000511F01D1296812E090FAA0F1B1FA81F130
:1013C00041F04001B0EB511F08D1296A07E000004D
:1013D000001002400000424200700040696A98FA22
:1013E000A8F0B0FA80F000F01F0006FA00F0014209
:1013F000D0D1206901280AD008B1052812D0286A66
:1014000020F001002862286A20F0040002E0286A27
:1014100040F001002862206998B3FFF7F1FA834693
:101420000CE05BE0286A40F004002862EFE700BFB0
:10143000FFF7E6FAA0EB0B01514598D898FAA8F10E
:10144000B1FA81F141F040014046B6EB511F01D1A4
:1014500029680BE090FAA0F1B1FA81F141F0400166
:10146000B0EB511F01D1296A00E0696A98FAA8F02F
:10147000B0FA80F000F01F0206FA02F00142D7D065
:101480002CE0FFE7FFF7BCFA834605E0FFF7B8FA68
:10149000A0EB0B0151457CD898FAA8F1B1FA81F183
:1014A00041F040014046B6EB511F01D129680BE0E5
:1014B00090FAA0F1B1FA81F141F04001B0EB511F77
:1014C00001D1296A00E0696A98FAA8F0B0FA80F0C0
:1014D00000F01F0206FA02F00142D7D1E16AA1B37F
:1014E0006868C00307D56868C0F38100022802D18C
:1014F000E86AC00370D44FF080604FF0006B02299F
:101500000DD0E96A21F48031E96290FAA0F0B0FAD6
:1015100080F047F82090FFF773FA804670E0296862
:10152000C90005D5E96A626B01F0F001914253D11F
:101530004FF0806090FAA0F0B0FA80F047F8209069
:10154000FFF75EFA8246D84606E06EE0FFF758FAEB
:10155000A0EB0A0064281CD898FAA8F0B0FA80F032
:1015600040F02000400901D0286800E0686A98FA3D
:10157000A8F1B1FA81F101F01F0106FA01F1084268
:10158000E4D1E86A616B20F0F0000843E862E86AA1
:1015900000E082E0216B20F470600843E8624FF0C5
:1015A000806090FAA0F0B0FA80F047F82060FFF772
:1015B00027FA824606E000BFFFF722FAA0EB0A00F6
:1015C00064286AD898FAA8F0B0FA80F040F02000B9
:1015D000400902D0286801E0A7E0686A98FAA8F1FB
:1015E000B1FA81F101F01F0106FA01F10842E3D0DE
:1015F0001BE000BFFFF704FAA0EB080064284CD8FA
:101600009BFAABF0B0FA80F040F02000400901D026
:10161000286800E0686A9BFAABF1B1FA81F101F049
:101620001F0106FA01F10842E4D1206AA0B36968FB
:10163000C1F38101022978D002284FF080714FF068
:10164000007A48460AD091FAA1F1B1FA81F147F83F
:101650002100FFF7D5F9074654466FE08B4691FA13
:10166000A1F1B1FA81F1B94647F82100FFF7C8F9B5
:101670008046574606E000BFFFF7C2F9A0EB08001E
:10168000022858D897FAA7F0B0FA80F040F020006E
:10169000400903D0286802E065E04CE0686A97FAE8
:1016A000A7F1B1FA81F101F01F0106FA01F1084238
:1016B000E2D1606AB0F5803F09D1E86A6168084309
:1016C000E862E86AE16820F00F000843E862D4E9C4
:1016D00009010843696821F47411084368609BFAA2
:1016E000ABF0B0FA80F049F82060FFF789F90446C2
:1016F00005E000BFFFF784F9001B02281BD897FA0A
:10170000A7F0B0FA80F040F02000400901D028682E
:1017100000E0686A97FAA7F1B1FA81F101F01F01C0
:1017200006FA01F10842E5D01DE01EE0FFF768F976
:10173000C01B022802D90320BDE8F88F94FAA4F058
:10174000B0FA80F040F02000400901D0286800E0A5
:10175000686A94FAA4F1B1FA81F101F01F0106FA66
:1017600001F10842E2D10020E6E70120E4E74FF072
:10177000E0210428086903D020F0040008617047C4
:1017800040F00400FAE710B5401EB0F1807F01D3AD
:10179000012010BD4FF0E02460610F21601700F0C0
:1017A00085FA0020A06107202061002010BD70474D
:1017B000704710B5040003D094F8390010B107E069
:1017C000012010BD002084F83800204600F00CF8FD
:1017D000022084F83900211D206800F00DFB012053
:1017E00084F83900002010BD70470168CA6842F0D3
:1017F0000102CA600068016841F001010160002037
:101800007047704770B50446006801694FF00005E5
:10181000C943890715D4C168C943890711D4E91E92
:10182000016101202076206880698007204602D06F
:10183000FFF7E7FF04E000F098F8204600F096F884
:10184000257620680169C943490717D4C168C9438F
:10185000490713D46FF0040101610220207620684B
:10186000806910F4407F204602D0FFF7CAFF04E0F1
:1018700000F07BF8204600F079F8257620680169B1
:10188000C943090716D4C168C943090712D46FF0C8
:1018900008010161042020762068C0698007204685
:1018A00002D0FFF7AEFF04E000F05FF8204600F042
:1018B0005DF8257620680169C943C90617D4C16857
:1018C000C943C90613D46FF01001016108202076C6
:1018D0002068C06910F4407F204602D0FFF791FFD6
:1018E00004E000F042F8204600F040F82576206839
:1018F0000169C943C90708D1C168C943C90704D1EF
:10190000891E0161204600F032F820680169C94350
:10191000090609D4C168C943090605D46FF08001DE
:1019200001612046FFF743FF20680169C94349066A
:1019300009D4C168C943490605D46FF0400101616B
:10194000204600F016F820680169C94389060BD4C7
:10195000C168C943890607D46FF0200101612046A0
:10196000BDE87040FFF724BF70BD70477047FFF7B8
:101970004DB8704770B5040004D094F839000025C4
:1019800010B106E0012070BD84F83850204600F008
:1019900021F8022084F839002068C16821F4005140
:1019A000C160204600F062FA2068016921F490418C
:1019B00001612068416921F02A0141612068C16804
:1019C00041F40051C160E563012084F83900002032
:1019D00070BD0000F0B506460068234985B0884216
:1019E00040D12248816941F4804181618069204D64
:1019F00000F4804004904FF40070009002200190A9
:101A00000320039069462846FEF716FF0024281598
:101A1000CDE90004694628460294FEF70DFF164DF5
:101A20001448C5E90004AC602020EC60C701EF61F8
:101A30002C61C5E905402846FEF7CAFE75630D48CE
:101A40006E623835143828601020C5E90104802002
:101A5000C5E903046C61C5E906472846FEF7B8FEF0
:101A600035636E6205B0F0BD0038014000100240E1
:101A70000008014058000240F00000202DE9F04726
:101A8000044690F8390099460D46012801D02228D5
:101A900058D12DB322B394F83800012852D0012632
:101AA00084F838600027E76394F8390022281AD0B8
:101AB0005FF0120084F83900A284E2844FF4805869
:101AC000E08C4B46401EE084A0684FF00002404589
:101AD0004FF08001204613D100F038FA08BB04E033
:101AE0000120BDE8F0873220E4E728882168C0F3B0
:101AF00008004860206908B16D1C08E0AD1C06E0D4
:101B000000F024FA68B9216815F8010B4860E08CF0
:101B10000028D5D14B4600224021204600F016FA7D
:101B200008B10320DDE794F83900322806D084F8A4
:101B3000396000BF84F838700020D2E7222084F892
:101B40003900F7E70220CCE703490248086008465D
:101B5000FEF7BCBB00300240080000200D4808B56D
:101B6000416941F0010141614069002200F001003A
:101B7000009005210E20FEF7DFFF0E20FEF7D0FFBC
:101B8000002205210F20FEF7D7FFBDE808400F20F7
:101B9000FEF7C6BF0010024010B58AB014220B49F0
:101BA0006846FEF743FB0021684600F0ECFA084C5B
:101BB000064914222060143105A8FEF737FB0021E6
:101BC00005A800F0E0FA20600AB010BD4C2A000819
:101BD00010000020F0B5274885B0816941F0400130
:101BE0008161816901F040010491816941F0100136
:101BF0008161816901F010010491816941F0200146
:101C00008161816901F020010491816941F0040141
:101C100081618069184E00F004004FF6FF74049053
:101C2000002221463046FEF7E5FE144F4EF29C0599
:101C3000002229463846FEF7DDFE009403200124E9
:101C40000390694601943046FEF7F6FD0220CDE987
:101C50000054039069463846FEF7EEFD8020009060
:101C600000200190029069460548FEF7E5FD05B0A9
:101C7000F0BD0000001002400018014000140140B7
:101C8000001001400848074901604FF4E13141600C
:101C9000002181600C22C160C0E904128161C16130
:101CA000FFF768BE00380140B00000200907090EA8
:101CB000002806DA00F00F0000F1E02080F8141D83
:101CC000704700F1E02080F80014704708A000F091
:101CD00087F94FF4FA74FF2000F00CFA204600F068
:101CE0003CFAFF2000F0ECF9204600F036FAF2E76B
:101CF0004672656552544F532044656D6F202D3EEA
:101D0000426C696E6B5461736B0D0A00012000F028
:101D100024FAFBE700F02DBA30B593B00125280472
:101D20000421CDE902010224CDE90050CDE90840AB
:101D30004FF4E010CDE90A044FF4C0600C9040204D
:101D40000D906846FFF746F90F20CDE90E040020FC
:101D50006102CDE91001129002210EA8FEF71EFFCC
:101D6000FFF780F84FF47A71B0FBF1F0FFF70BFD4D
:101D70000420FFF7FCFCE00690FAA0F00549B0FA59
:101D800080F041F8205000220F21501EFEF7D4FEB3
:101D900013B030BD000042421048016841F001011B
:101DA000016041680E4A1140416001680D4A1140CE
:101DB0000160016821F480210160416821F4FE0185
:101DC0004160016821F0A05101604FF47F01816002
:101DD0000021C1620449C00308607047001002403E
:101DE0000000FFF0FFFFF6FE08ED00E00148FFF7FE
:101DF00009BD000074000020F0B50268174B184CB4
:101E0000184D194E4FF08047984207D0B84205D080
:101E1000A04203D0A84201D0B04204D122F0700CFD
:101E20004A6842EA0C02984207D0B84205D0A04264
:101E300003D0A84201D0B04203D122F44074CA6852
:101E4000224302608A68C2620A688262984201D1B3
:101E50000969016301214161F0BD0000002C0140CE
:101E60000004004000080040000C00402DE9F04153
:101E7000044600680169E26821F4405111430161A0
:101E80002169A0680843616908432168CA6841F272
:101E90000C639A430243CA6020684169A26921F435
:101EA0004071114341612849206864254FF0320890
:101EB000884218D1FFF706F800EBC00101EB0010D3
:101EC00061688900B0FBF1F0B0FBF5F6FEF7FAFFB0
:101ED00000EBC00101EB001061688900B0FBF1F775
:101EE000FEF7F0FF17E0FEF7D7FF00EBC00101EBB4
:101EF000001061688900B0FBF1F0B0FBF5F6FEF769
:101F0000CBFF00EBC00101EB001061688900B0FB62
:101F1000F1F7FEF7C1FF00EBC00101EB00106168B3
:101F20008900B0FBF1F0B0FBF5F06FF01801484309
:101F300007EB800108EB0110B0FBF5F0216866F3B8
:101F40001F108860BDE8F081003801402DE9F0479E
:101F50001D4690460E460446FEF752FD07465FEAD0
:101F600008004FF000094FF0010808D030E0681C6D
:101F700005D095B1FEF744FDC01BA8420DD82068DE
:101F8000006836EA0000F2D127E0681C20D025B1B5
:101F9000FEF736FDC01BA8421AD92068C16821F09F
:101FA0008001C1602068C16821F02001C160206803
:101FB000C16821F48071C1602068416921F001018C
:101FC000416184F8398084F838900320BDE8F087B7
:101FD0002068006836EA0000D7D00020F6E700004D
:101FE000014A024900F013B8A9200008700000203F
:101FF00002E008C8121F08C1002AFAD170477047D2
:10200000002001E001C1121F002AFBD170472DE919
:10201000F04116460F460446002503E03946B04716
:10202000641C6D1C20780028F8D12846BDE8F0819A
:1020300010B507A0FFF7D4FF06A0FFF7D1FF0CA053
:10204000FFF7CEFFBDE810400FA0FFF7C9BF0000AB
:102050000A0D00004861726477617265203A20536E
:10206000544D333246313037564354360A0000005F
:10207000536F667477617265203A204D444B205649
:10208000352E32300A00000045616D696C203A201F
:102090007A627431333134646F7568616F406C6992
:1020A00076652E636F6D0A0013B54FF6FF7301223C
:1020B00069460248FFF7E2FC00981CBDB000002012
:1020C0002DE9F04100240A4E0746012505FA04F0E7
:1020D000384207D006EBC4000022818856F834004D
:1020E000FEF788FC641CE4B2042CEFD3BDE8F08159
:1020F0002C2A00082DE9F04100240A4E074601254C
:1021000005FA04F0384207D006EBC40001228188AA
:1021100056F83400FEF76EFC641CE4B2042CEFD3D6
:10212000BDE8F0812C2A0008FEF778FCFFF7F4FDEB
:10213000FFF750FDFFF712FDFFF706FDFFF7A2FDC9
:10214000FFF776FFFFF728FD00F00EF8FEE70146E7
:102150000020842900D0C81C704710B500B90120A8
:1021600000F006FA002010BD10B500F029FA00209A
:1021700010BD10B500F08EFB012803D0BDE8104063
:1021800000F0B0BA10BD30B5044685B00D46B0F9C8
:102190000800FFF7DCFF002104AA0090CDE901212F
:1021A0000391208A2B4682B2D4E9001000F0ACFAE9
:1021B000012802D0002005B030BD0498FBE70000E4
:1021C00070B50B4C054620684560E0682168854283
:1021D00005D2606BBDE87040091D00F037B9206B77
:1021E000091D00F033F9A06A854200D2A56270BDD6
:1021F0003800002070B5124E124C1AE000F006FABA
:102200003068D0B100F0B4FB00F044F9F068C56864
:10221000281D00F0FBF8A068401EA0606068401E0A
:10222000606000F053F9286B00F062F9284600F076
:102230005FF960680028E1D170BD00F099FBF8E714
:10224000281200203800002010484FF48051420727
:1022500006D0C01D0D4920F00700411AC1F580517C
:102260000B4A00230144C2E900030839103A21F067
:10227000070111604B600B600B1AC0E900139360FB
:102280004FF000405360D0607047000060010020B4
:1022900030000020044C00BFFFF7ACFF206801288D
:1022A000FAD900F059F9F7E76011002030B511496B
:1022B00000E011460A688242FBD34B685C188442F6
:1022C00003D1406818444860084643681C1894428B
:1022D00009D1084C103C2468A24209D052681A4423
:1022E00042600A6812680260814200D0086030BD16
:1022F0000460F9E7300000200648016B096829B145
:10230000016BC968C9684968816270474FF0FF3145
:10231000FAE700003800002004484068401C02D062
:10232000FDF764FFFEE7FDF761FFFEE71400002004
:102330002DE9F0410546002700F068F92A4E306883
:1023400008B9FFF781FFF068054242D1F5B30835BF
:10235000680709D005F00700C0F1080005446807C8
:1023600002D0FDF743FFFEE785B37068854230D8A1
:102370001D48103001460C6801E020460C4661689B
:10238000A94202D221680029F7D131688C4220D0BD
:1023900007682168016060680837411B102909D966
:1023A0006019420702D0FDF721FFFEE7416065603A
:1023B000FFF77CFF61687068401A7060B2689042F5
:1023C00000D2B060F0680143002000E001E0C4E901
:1023D000000100F0CDFA780702D0FDF707FFFEE715
:1023E0003846BDE8F08100002000002010B5031F32
:1023F0004FF080741C601B1F1960191F024B0B608B
:10240000143940380A6010BD19230008D0E90132A0
:1024100001699A60D0E901235A604A68824201D179
:1024200082684A60002202610868401E08607047A6
:1024300000F108014FF0FF32C0E90112C1600161F3
:1024400000210160704700210161704730B50B68C1
:102450005A1C02D000F1080202E0026904E02246A0
:10246000546825689D42FAD953684B6099608A6028
:10247000516008610168491C016030BD42684A60D2
:1024800093688B6093685960916008610168491C8A
:102490000160704710B5FDF7A9FE0A484168491C64
:1024A0004160BFF34F8FBFF36F8F4068012807D1A2
:1024B0000548006810F0FF0F02D0FDF797FEFEE719
:1024C00010BD00001400002004ED00E0074910B525
:1024D000486830B1401E486006D1BDE81040FDF7A5
:1024E0008CBEFDF783FEFEE710BD00001400002047
:1024F00070B500281DD00F4DA0F108046068E96890
:10250000084202D1FDF772FEFEE7226812B1FDF724
:102510006DFEFEE78843606000F078F860686968E7
:10252000084468602046FFF7C1FEBDE8704000F037
:102530001FBA70BD2000002006484FF47A71006871
:10254000B0FBF1F14FF0E020491E4161072101612C
:10255000704700000000002004494FF080500860E0
:10256000BFF34F8FBFF36F8F7047000004ED00E0A3
:1025700070B502001DD0114CE06A10B1FDF736FEB7
:10258000FEE700F043F8E06885182068001DFFF7BB
:102590003DFF38B9206890F82C100120884021694F
:1025A000814321612846FFF70BFE00F0E1F9002886
:1025B00003D1BDE87040FFF7CFBF70BD38000020E9
:1025C0001FB50024009401940294234680220BA19D
:1025D0000C48039400F098F8012804D000280CD18E
:1025E000FDF704FEFEE7FDF701FE0748012141610A
:1025F000C460BDE81F4000F03BB81FBD49444C45D6
:102600000000000095220008380000200248C16A3E
:10261000491CC1627047000038000020124810B504
:10262000C16A11B10121C16110BD0021C1610169FF
:102630000E4AB1FA81F1C1F11F0101EB810152F89B
:1026400021306BB102EB810101F108034A68526845
:102650004A609A4201D152684A60D168016010BD57
:10266000FDF7C4FDFEE700003800002060110020E7
:102670001CB5194908780190FF20087008788DF87A
:1026800000009DF80000154A00F05000107007206F
:10269000906005E09DF800305B008DF80030401E32
:1026A0009DF800301B06F5D4000200F4E060906055
:1026B000019808700A48016841F4700101600168DE
:1026C00041F070410160FFF737FF00205060FDF7D7
:1026D0005BFD00201CBD000000E400E014000020B1
:1026E00020ED00E010B5FDF781FD00F0E1F818B134
:1026F00004494FF080500860BDE810400020FDF70D
:102700007CBD000004ED00E02DE9FF5F5FEA000BF7
:10271000DDE90F900E9E15468A4604D0072E05D39C
:10272000FDF764FDFEE7FDF761FDFEE7A9008846C1
:1027300010B90846FFF7FCFD070019D05C20FFF731
:10274000F7FD0400384611D0A52241462063FDF76D
:102750008DFD6FF00301206B01EB8501084420F033
:102760000707780707D0FDF741FDFEE7FFF7C0FE3A
:102770004FF0FF3486E051463546002022180B5CAE
:1027800082F834300A5C12B1401C1028F6D30020C5
:1027900084F84300072D00D30625E562C4E91350F1
:1027A0008046201DFFF74FFE04F11800FFF74BFE97
:1027B0002461C5F107016462A161C4F8548084F802
:1027C000588059463846039AFFF710FE2060B9F149
:1027D000000F01D0C9F80040FFF75CFE2B4DA86840
:1027E000401CA8602868DFF8A88010B1686940B371
:1027F0002CE02C60A868012828D1002707EB87016E
:1028000008EB8100FFF714FE7F1C072FF6D320484A
:102810008C30FFF70DFE1E48A030FFF709FE1C4864
:10282000B430FFF705FE1A48C830FFF701FE18481C
:10283000DC30FFF7FDFD16488C30286314306863E8
:1028400004E02868C06AB04200D82C60686A401C66
:1028500068626064E16A01202A6988401043286147
:1028600001EB810108EB8100211DFFF707FE012428
:10287000FFF72CFE686928B12868C06AB04201D20F
:10288000FFF76AFE04B02046BDE8F09F3800002044
:10289000601100200548416919B1C06A18B10020D3
:1028A0007047012070470220704700003800002068
:1028B0002DE9F0412C4C0026E06A40B1A069401C93
:1028C000A061E06900B101263046BDE8F081E06812
:1028D000401CE060E76877B9206B006810B1FDF735
:1028E00085FCFEE7206B616B21636063206A401CFE
:1028F0002062FFF701FDA06ADFF87080874209D3EC
:10290000206B006880B1206BC068C568686887422A
:102910000DD2A0622068C06A00EB800158F8210047
:102920000128CED90126CCE74FF0FF30F1E7281D72
:10293000FFF76CFDA86A18B105F11800FFF766FDF6
:10294000E96A0120226988401043206101EB81017E
:1029500008EB8100291DFFF791FDE86A2168C96A2B
:102960008842CDD30126CBE738000020601100203B
:102970002DE9F047274C0026E06A38B1FFF78AFDC1
:10298000E06A401EE062E06A18B13DE0FDF72EFC0F
:10299000FEE7A168204D012079B3A5F1B409804676
:1029A0002868E8B1E868C76807F11800FFF72EFD4E
:1029B000381DFFF72BFDF96A226908FA01F0104370
:1029C000206101EB810109EB8100391DFFF756FD04
:1029D000F86A2168C96A8842E2D3C4F81C80DFE73C
:1029E000A06958B14546A06940B1FFF761FF00B149
:1029F000E561A069401EA061F5E705E0E0690128F6
:102A000002D10126FFF7A8FDFFF760FD3046BDE8C3
:102A1000F0870000380000201412002000000000A1
:102A2000010203040102030406070809001401401F
:102A300004000000001401400800000000140140E0
:102A4000100000000014014080000000842A0008EB
:102A50000D1D0008000000000000000080000000C4
:102A6000742A0008CD1C00080000000000000000CF
:102A7000800000006C6564426C696E6B5461736B1E
:102A80000000000064656661756C745461736B00CE
:102A9000B02A00080000002074000000F01F0008A9
:102AA000242B000874000020DC1300000020000824
:102AB00000A24A0400000000000000000000000026
:102AC0000000000000000000AAAAAAAA000000005E
:102AD00000000000000000000000000000000000F6
:102AE00000000000000000000000000000000000E6
:102AF00000000000000000000000000000000000D6
:102B000000000000000000000000000000000000C5
:102B1000FFFFFFFF000000000000000000000000B9
:042B200000000000B1
:04000005080001519D
:00000001FF
