:020000040800F2
:10000000C8020020650100086D0100086F010008AA
:10001000710100087301000875010008000000006C
:100020000000000000000000000000007701000850
:1000300079010008000000007B0100083527000856
:100040007F0100087F0100087F0100087F01000890
:100050007F0100087F0100087F0100087F01000880
:100060007F0100087F0100087F0100087F01000870
:100070007F0100087F010008AD010008BD010008F4
:100080007F0100087F0100087F0100087F01000850
:100090007F0100087F0100087F0100087F01000840
:1000A0007F0100087F0100087F0100087F01000830
:1000B0007F0100087F0100087F0100087F01000820
:1000C0007F0100087F0100087F0100087F01000810
:1000D0007F010008B52B00087F0100087F010008A0
:1000E0007F0100087F0100087F0100080000000078
:1000F0000000000000000000000000000000000000
:1001000000000000000000007F0100087F010008DF
:100110007F0100087F0100087F0100087F010008BF
:100120007F0100087F0100087F0100087F010008AF
:100130007F0100087F0100087F0100087F0100089F
:100140007F0100087F0100087F0100087F0100088F
:10015000DFF80CD000F018F800480047312C0008F8
:10016000C80200200648804706480047FEE7FEE731
:10017000FEE7FEE7FEE7FEE7FEE7FEE7FEE7FEE757
:10018000D127000851010008064C074D06E0E06841
:1001900040F0010394E8070098471034AC42F6D3CE
:1001A000FFF7DAFF742C0008942C000810B5024801
:1001B00000F034F810BD00008C00002010B502489B
:1001C00000F02CF810BD00005400002010B50446CB
:1001D0000CB9012010BD607920B9002020712046A3
:1001E00000F004F8012060710020F3E708B5094A27
:1001F000016891420DD100BF0749496941F04001B2
:10020000054A51611146496901F04001009100BF62
:1002100000BF08BD003002400010024010B5044687
:10022000F8492068884255D9F7480068F54A783A75
:100230002168914201D108214AE0F24A643A2168DA
:10024000914201D1802143E0EE4A503A2168914227
:1002500001D1C9143CE0EB4A3C3A2168914202D1F9
:100260004FF4004134E0E74A283A2168914202D134
:100270004FF400212CE0E34A143A2168914202D164
:100280004FF4000124E0DF4A2168914201D10905C1
:100290001EE0DD4A08322168914201D1082117E0B1
:1002A000D94A1C322168914201D1802110E0D64AFE
:1002B00030322168914201D1C91409E0D24A443256
:1002C0002168914202D14FF4004101E04FF4002136
:1002D000084055E0CB4880380068CA4A783A21681F
:1002E000914201D108214AE0C64A643A216891420C
:1002F00001D1802143E0C34A503A2168914201D1A3
:10030000C9143CE0BF4A3C3A2168914202D14FF403
:10031000004134E0BB4A283A2168914202D14FF4AF
:1003200000212CE0B74A143A2168914202D14FF4DF
:10033000000124E0B34A2168914201D109051EE081
:10034000B14A08322168914201D1082117E0AE4A32
:100350001C322168914201D1802110E0AA4A30323A
:100360002168914201D1C91409E0A74A44322168A9
:10037000914202D14FF4004101E04FF400210840C6
:10038000002873D020680068C0F3C0000028F8D0AF
:100390002068006820F008002168086099492068FA
:1003A000884255D9974978392068884201D1082078
:1003B0004AE0944964392068884201D1802043E0B2
:1003C000904950392068884201D1C0143CE08D49E1
:1003D0003C392068884202D14FF4004034E089491A
:1003E00028392068884202D14FF400202CE085494A
:1003F00014392068884202D14FF4000024E081497A
:100400002068884201D100051EE07F49083120683C
:10041000884201D1082017E07B491C3120688842BE
:1004200001D1802010E0784930312068884201D124
:10043000C01409E0744944312068884202D14FF465
:10044000004001E04FF400206F49091D086055E0AD
:100450006C4978392068884201D108204BE069490D
:1004600064392068884202D1802044E057E0654921
:1004700050392068884201D1C0143CE061493C39C0
:100480002068884202D14FF4004034E05D492839A9
:100490002068884202D14FF400202CE059491439D9
:1004A0002068884202D14FF4000024E055492068BA
:1004B000884201D100051EE0534908312068884276
:1004C00001D1082017E050491C312068884201D131
:1004D000802010E04C4930312068884201D1C0149E
:1004E00009E0494944312068884202D14FF4004074
:1004F00001E04FF40020434980394860606B40F0D0
:1005000001006063042084F8210000BF002084F80B
:10051000200000BF206B10B12046216B884739496D
:100520002068884255D938480068364A783A2168A8
:10053000914201D104214AE0324A643A2168914251
:1005400001D1402143E02F4A503A2168914201D124
:1005500009153CE02B4A3C3A2168914202D14FF404
:10056000804134E0274A283A2168914202D14FF471
:1005700080212CE0234A143A2168914202D14FF4A1
:10058000800124E01F4A2168914201D1C9041EE084
:100590001D4A08322168914201D1042117E01A4A0C
:1005A0001C322168914201D1402110E0164A3032BC
:1005B0002168914201D1091509E0134A44322168AA
:1005C000914202D14FF4804101E04FF48021084074
:1005D00059E00C48803800680A4A783A216891420C
:1005E00001D104214EE0074A643A2168914201D1C9
:1005F000402147E0034A503A2168914206D109154B
:1006000040E000008000024000040240F74A2168F8
:10061000914202D14FF4804134E0F44A143221680F
:10062000914202D14FF480212CE0F04A2832216817
:10063000914202D14FF4800124E0EC4A3C3221681F
:10064000914201D1C9041DE0E94A2168914201D1DA
:10065000042117E0E64A14322168914201D1402179
:1006600010E0E34A28322168914201D1091509E0DE
:10067000DF4A3C322168914202D14FF4804101E0CF
:100680004FF48021084080B320680068C0F38000E8
:1006900058B32068006800F0200028B9206800687E
:1006A00020F0040021680860D0493C31206888426D
:1006B00055D9CE493C392068884201D104204AE00E
:1006C000CA4928392068884201D1402043E0C749FF
:1006D00014392068884201D100153CE0C3492068E4
:1006E000884203D14FF4804035E094E0BF49143193
:1006F0002068884202D14FF480202CE0BB49283189
:100700002068884202D14FF4800024E0B7493C3190
:100710002068884201D1C0041DE0B54920688842A4
:1007200001D1042017E0B24914312068884201D178
:10073000402010E0AE4928312068884201D10015E0
:1007400009E0AB493C312068884202D14FF4804037
:1007500001E04FF48020A649091F086053E0A34937
:100760003C392068884201D1042049E09F4928395A
:100770002068884201D1402042E09C491439206819
:10078000884201D100153BE098492068884202D197
:100790004FF4804034E0954914312068884202D1FA
:1007A0004FF480202CE0914928312068884202D102
:1007B0004FF4800024E08D493C312068884201D10B
:1007C000C0041DE08A492068884201D1042017E056
:1007D000874914312068884201D1402010E08449C3
:1007E00028312068884201D1001509E080493C3158
:1007F0002068884202D14FF4804001E04FF480200D
:100800007A4944394860112084F82100E06A10B127
:100810002046E16A884775493C312068884255D9AD
:10082000734808380068714A3C3A2168914201D106
:10083000022149E06D4A283A2168914201D12021E4
:1008400042E06A4A143A2168914201D149153BE0DD
:10085000664A2168914202D14FF4005134E0634A64
:1008600014322168914202D14FF400312CE05F4AEA
:1008700028322168914202D14FF4001124E05B4AF2
:100880003C322168914201D189041DE0584A216817
:10089000914201D1022117E0554A14322168914258
:1008A00001D1202110E0524A28322168914201D121
:1008B000491509E04E4A3C322168914202D14FF479
:1008C000005101E04FF40031084054E047484438FB
:1008D0000068464A3C3A2168914201D1022149E030
:1008E000424A283A2168914201D1202142E03F4A00
:1008F000143A2168914201D149153BE03B4A2168F5
:10090000914202D14FF4005134E0384A1432216848
:10091000914202D14FF400312CE0344A2832216850
:10092000914202D14FF4001124E0304A3C32216858
:10093000914201D189041DE02D4A2168914201D1E3
:10094000022117E02A4A14322168914201D1202164
:1009500010E0274A28322168914201D1491509E067
:10096000234A3C322168914202D14FF4005101E008
:100970004FF40031084080B320680068C0F34000A5
:1009800058B32068006800F0200028B9206800688B
:1009900020F002002168086014493C312068884238
:1009A00058D912493C392068884201D102204DE0D3
:1009B0000E4928392068884201D1202046E00B49A1
:1009C00014392068884201D140153FE0074920686A
:1009D000884203D14FF4005038E09EE003491431BF
:1009E0002068884206D14FF400302FE044000240D6
:1009F0000804024049492068884202D14FF400109F
:100A000024E0464914312068884201D180041DE069
:100A100043492068884201D1022017E0404914313F
:100A20002068884201D1202010E03D49283120680B
:100A3000884201D1401509E039493C31206888429B
:100A400002D14FF4005001E04FF400303449091F47
:100A5000086053E0314964392068884201D102209E
:100A600049E02E4950392068884201D1202042E0D7
:100A70002A493C392068884201D140153BE027498A
:100A800028392068884202D14FF4005033E02349CE
:100A900014392068884202D14FF400302BE01F49FE
:100AA0002068884202D14FF4001024E01B49143121
:100AB0002068884201D180041DE0194920688842DD
:100AC00001D1022017E0164914312068884201D173
:100AD000202010E0124928312068884201D14015B9
:100AE00009E00F493C312068884202D14FF40050A0
:100AF00001E04FF4003009496C394860606B606375
:100B0000012084F8210000BF002084F8200000BFED
:100B1000A06A10B12046A16A884710BD6C0002404F
:100B2000080402400146002209B90120704791F8EB
:100B3000210010B9002081F82000022081F8210056
:100B40000868026843F6F0708243D1E90103184354
:100B5000CB6818430B6918434B6918438B691843DA
:100B6000CB691843024308680260002048630120F3
:100B700081F821000020D9E731B5002400F09EF96A
:100B8000044600BF00F09AF9001B00998842F9D38F
:100B900038BD00002DE9F847034600240020002559
:100BA0008446002700226EE14FF0010808FA02F4A3
:100BB000D1F8008008EA0400A0427DD1DFF8D0A27D
:100BC000D1F80480A8EB0A09D0453AD014DCB8F17A
:100BD000030F50D009DCB8F1000F31D0B8F1010F8C
:100BE0001CD0B8F1020F49D120E0B8F1110F18D094
:100BF000B8F1120F42D11EE0B9F5881F25D006DCEE
:100C0000B9F5803F20D0B9F5801F37D11AE0B9F58A
:100C1000001F18D0B9F5041F30D117E0D1F80CC06F
:100C20002DE0D1F80C8008F1040C28E0D1F80C80FC
:100C300008F1080C23E0D1F80C8008F10C0C1EE040
:100C400000BF00BF00BF00BF00BF00BFD1F80880D9
:100C5000B8F1000F02D14FF0040C0BE0D1F808807E
:100C6000B8F1010F03D14FF0080C1C6102E04FF006
:100C7000080C5C6103E04FF0000C00E000BF00BF17
:100C8000FF2801D8984601E003F104084646FF28F2
:100C900002D84FEA820803E0A2F108084FEA880868
:100CA0004746D6F800804FF00F0909FA07F928EAFD
:100CB00009080CFA07F900E088E048EA0908C6F8D4
:100CC0000080D1F8048008F08058B8F1805F7DD1B1
:100CD00000BFDFF8C081D8F8188048F00108DFF8BD
:100CE000B491C9F81880C846D8F8188008F00108EF
:100CF000CDF8008000BF00BF4FEAB9384FEA920933
:100D000058F829504FEA82784FEA18794FF00F08C7
:100D100008FA09F825EA0805DFF87C81434502D185
:100D20004FF0000816E0DFF87481434502D14FF020
:100D300001080FE0DFF86881434502D14FF0020857
:100D400008E0DFF86081434502D14FF0030801E07D
:100D50004FF004084FEA82794FEA197908FA09F846
:100D600048EA0505DFF840814FEA920948F8295022
:100D7000D1F8048008F48038B8F5803F0AD1DFF854
:100D80002C81D8F8008048EA0008DFF82091C9F8E3
:100D9000008009E0DFF81481D8F8008028EA000814
:100DA000DFF80891C9F80080D1F8048008F4003811
:100DB000B8F5003F10D1DFF8F48008F10408D8F846
:100DC000008048EA0008DFF8E49000E05AE009F10A
:100DD0000409C9F800800DE0DFF8D08008F10408AC
:100DE000D8F8008028EA0008DFF8C09009F104096B
:100DF000C9F80080D1F8048008F48018B8F5801F85
:100E00000ED1DFF8A88008F10808D8F8008048EA79
:100E10000008DFF8989009F10809C9F800800DE092
:100E2000DFF8888008F10808D8F8008028EA000870
:100E3000DFF8789009F10809C9F80080D1F804803A
:100E400008F40018B8F5001F0ED1DFF8608008F133
:100E50000C08D8F8008048EA0008DFF8509009F143
:100E60000C09C9F800800DE0DFF8408008F10C089B
:100E7000D8F8008028EA0008DFF8309009F10C0962
:100E8000C9F80080521C102AFFF48EAEBDE8F88726
:100E9000000011100010024000080140000C014049
:100EA000001001400014014008000140000401400E
:100EB0000AB1016101E00B04036170470148006859
:100EC000704700000400002002480068401C0149EF
:100ED000086070470400002010B50848006840F022
:100EE000100006490860032000F0A4F8002000F07C
:100EF00007F800F017F8002010BD000000200240A5
:100F000070B5044600F0C4FA4FF47A71B0FBF1F505
:100F1000284601F096F900222146501E00F04BF8B9
:100F2000002070BD08B500BF1A48806940F001007C
:100F3000184988610846806900F00100009000BFF0
:100F400000BF062000F076F8002211466FF00B007B
:100F500000F031F8002211466FF00A0000F02BF883
:100F6000002211466FF0090000F025F8002211461A
:100F7000101F00F020F800221146501E00F01BF850
:100F80000548406820F0E06040F000700249486089
:100F900008BD0000001002400000014000BF00F04A
:100FA0001F02012191404209920002F1E022C2F8A1
:100FB000001100BF70472DE9F05F80460D461646D0
:100FC000002701F09BFB074639462A46334601F0CD
:100FD0000700C0F1070ABAF1040F02D94FF0040A62
:100FE00001E0C0F1070AD14600F1040ABAF1070F87
:100FF00002D24FF0000A01E0A0F1030AD4464FF0FC
:10100000010A0AFA09FAAAF1010A0AEA020A0AFA24
:101010000CFA4FF0010B0BFA0CFBABF1010B0BEAD6
:10102000030B4AEA0B042146404601F06FFBBDE882
:10103000F09F000000BF00F00702064B19684FF652
:10104000FF031940044B0B4343EA0221014B196093
:1010500000BF70470CED00E00000FA0570B50446D3
:101060000D460026F748006800F00700A84270D23D
:10107000F448006820F007002843F2490860084659
:10108000006800F00700A84201D0012070BD207860
:1010900000F00200022807D1EB48406820F0F00081
:1010A000A1680843E8494860207800F00100002862
:1010B0006FD0606801282DD12020010391FAA1F1A1
:1010C000B1FA81F108430121B1EB601F02D1DE4882
:1010D00000680FE02020010391FAA1F1B1FA81F13B
:1010E00008430221B1EB601F02D1D748006A01E03A
:1010F000D548406A20210A0392FAA2F2B2FA82F29B
:10110000114301F01F02012191400840002861D1E4
:101110000120BBE7606802282DD12020010591FA4B
:10112000A1F1B1FA81F108430121B1EB601F02D1B5
:10113000C548006810E02020010591FAA1F1B1FA3C
:1011400081F108430221B1EB601F03D1BE48006A60
:1011500002E083E0BC48406A20210A0592FAA2F22C
:10116000B2FA82F2114301F01F02012191400840BE
:1011700078BB01208AE72020022191FAA1F1B1FA7F
:1011800081F108430121B1EB601F03D1AE48006833
:1011900010E05BE12020022191FAA1F1B1FA81F186
:1011A00008430221B1EB601F02D1A748006A01E0A9
:1011B000A548406A2021022292FAA2F2B2FA82F2F3
:1011C000114301F01F0201219140084008B901209C
:1011D0005CE7FFE79C48406820F003006168084333
:1011E00099494860FFF76AFE06466068012810D1F9
:1011F00008E0FFF763FE801B41F28831884201D985
:10120000032043E79048406800F00C000428F0D128
:101210001CE16068022810D108E0FFF74FFE801B38
:1012200041F28831884201D903202FE7864840687F
:1012300000F00C000828F0D108E108E0FFF73EFEBE
:10124000801B41F28831884201D903201EE77E4885
:10125000406800F00C000028F0D1F7E0207800F0A2
:101260000200022807D17848406820F0F000A16809
:10127000084375494860207800F0010000286ED0CE
:10128000606801282CD12020010391FAA1F1B1FA64
:1012900081F108430121B1EB601F02D16A48006867
:1012A0000FE02020010391FAA1F1B1FA81F1084386
:1012B0000221B1EB601F02D16348006A01E062487D
:1012C000406A20210A0392FAA2F2B2FA82F2114392
:1012D00001F01F0201219140084088BB0120D5E6A2
:1012E000606802282DD12020010591FAA1F1B1FA00
:1012F00081F108430121B1EB601F02D1524800681F
:101300000FE02020010591FAA1F1B1FA81F1084323
:101310000221B1EB601F02D14B48006A01E04A484C
:10132000406A20210A0592FAA2F2B2FA82F211432F
:1013300001F01F0201219140084008B90120A5E6F3
:101340002DE02020022191FAA1F1B1FA81F10843A8
:101350000121B1EB601F03D13B48006810E061E060
:101360002020022191FAA1F1B1FA81F10843022172
:10137000B1EB601F02D13448006A01E03248406A94
:101380002021022292FAA2F2B2FA82F2114301F073
:101390001F0201219140084008B9012076E62A4841
:1013A000406820F003006168084327494860FFF760
:1013B00085FD06466068012810D108E0FFF77EFD34
:1013C000801B41F28831884201D903205EE61E4825
:1013D000406800F00C000428F0D123E06068022887
:1013E00010D108E0FFF76AFD801B41F28831884286
:1013F00001D903204AE61448406800F00C00082890
:10140000F0D10FE008E0FFF759FD801B41F2883171
:10141000884201D9032039E60B48406800F00C00EF
:101420000028F0D10748006820F00700284305494C
:1014300008600846006800F00700A84206D00120B6
:1014400024E600000020024000100240207800F056
:101450000400042807D10D48406820F4E060E168EA
:1014600008430A494860207800F00800082808D19D
:101470000648406820F46050216940EAC1000349F1
:1014800048600020FFF73CFD0020FFE5001002400F
:1014900000B500F045F80949496801F0F001F02273
:1014A00092FAA2F2B2FA82F2D140054A515CC840E7
:1014B000044908600846006800BD000000100240B2
:1014C000642C00080000002000B5FFF7E1FF074989
:1014D000496801F4E0614FF4E06292FAA2F2B2FAD4
:1014E00082F2D140024A515CC84000BD0010024067
:1014F000642C000800B5FFF7CBFF0749496801F4E9
:1015000060514FF4605292FAA2F2B2FA82F2D140E4
:10151000024A515CC84000BD00100240642C000823
:101520002DE9F04387B00FF22418D8E9007CD8F8F1
:101530000880CDE905C804970FF21C1CDCE900897E
:10154000DCE9027CCDE9027CCDE90089002200249F
:1015500000230021002000250026434F7A6802F076
:101560000C07002F6BD0042F02D0082F66D101E0AA
:101570003E4866E002F470174FF4701C9CFAACFC15
:10158000BCFA8CFC27FA0CF70DF1100C1CF80710B4
:1015900002F48037AFB3344FFF6A07F00F074FF004
:1015A0000F0C9CFAACFCBCFA8CFC27FA0CF71DF86B
:1015B00007402D4FFF6A07F480371FB32A4FFF6A99
:1015C00007F0F0074FF0F00C9CFAACFCBCFA8CFC76
:1015D00027FA0CF77D1C244FFF6A07F470674FF45D
:1015E000706C9CFAACFCBCFA8CFC27FA0CF7BE1CA5
:1015F0001E4FB7FBF5F77743B7FBF4F707FB01F393
:1016000005E016E0194FB7FBF4F707FB01F34FF4C1
:1016100050174FF4701C9CFAACFCBCFA8CFC27FAF7
:101620000CF70DF1100C1CF807708F4204D15B0809
:1016300002E00F4F01FB07F3184602E000BF0D4820
:1016400000BF00BF07B0BDE8F08300000000040544
:10165000060708090000000D01020304050607083B
:10166000090A0B0C0D0E0F100010024040787D018E
:1016700000093D0000127A0038B5044600252078A4
:1016800000F00100002877D0FC48406800F00C0012
:1016900004280CD0F948406800F00C00082837D125
:1016A000F648406800F48030B0F5803F30D120200B
:1016B000010391FAA1F1B1FA81F108430121B1EBE3
:1016C000601F02D1ED4800680FE02020010391FA6D
:1016D000A1F1B1FA81F108430221B1EB601F02D1FF
:1016E000E648006A01E0E548406A20210A0392FAD0
:1016F000A2F2B2FA82F2114301F01F0201219140DD
:1017000008400028BFD0A068002835D1012038BD8E
:1017100000BFDA48006820F48030D84908600846E5
:10172000006820F48020086000BFFFF7C7FB054673
:1017300006E0FFF7C3FB401B642801D90320E6E75E
:101740002020010391FAA1F1B1FA81F108430121AE
:10175000B1EB601F02D1C948006810E020200103EE
:1017600091FAA1F1B1FA81F108430221B1EB601FB6
:1017700003D1C248006A02E0B7E0C048406A2021B5
:101780000A0392FAA2F2B2FA82F2114301F01F02A6
:101790000121914008400028CBD100BFA068B0F5DE
:1017A000803F06D1B548006840F48030B3490860F6
:1017B00028E0A06858B9B148006820F48030AF49EB
:1017C00008600846006820F4802008601AE0A068DD
:1017D000B0F5A02F0BD1A948006840F48020A7499C
:1017E00008600846006840F4803008600AE0A348BA
:1017F000006820F48030A14908600846006820F4A1
:101800008020086000BFA068B8B3FFF757FB05460B
:1018100006E0FFF753FB401B642801D9032076E75D
:101820002020010391FAA1F1B1FA81F108430121CD
:10183000B1EB601F02D1914800680FE02020010346
:1018400091FAA1F1B1FA81F108430221B1EB601FD5
:1018500002D18A48006A01E08848406A20210A03D0
:1018600092FAA2F2B2FA82F2114301F01F020121B0
:10187000914008400028CCD037E0FFE7FFF71EFB7F
:10188000054606E0FFF71AFB401B642801D9032038
:101890003DE72020010391FAA1F1B1FA81F108435B
:1018A0000121B1EB601F02D1744800680FE02020D5
:1018B000010391FAA1F1B1FA81F108430221B1EBE0
:1018C000601F02D16D48006A01E06C48406A202127
:1018D0000A0392FAA2F2B2FA82F2114301F01F0255
:1018E0000121914008400028CCD1207800F002006E
:1018F00002284ED16148406800F00C0050B15F48AA
:10190000406800F00C00082844D15C48406800F4AE
:10191000803078BB2020022191FAA1F1B1FA81F147
:1019200008430121B1EB601F02D1544800680FE069
:101930002020022191FAA1F1B1FA81F1084302219C
:10194000B1EB601F02D14D48006A01E04B48406A8C
:101950002021022292FAA2F2B2FA82F2114301F09D
:101960001F0201219140084028B16069012802D07E
:101970000120CCE60EE04148006820F0F800F82293
:1019800092FAA2F2B2FA82F2A169914008433B496D
:10199000086095E0606970B3012090FAA0F1B1FA97
:1019A00081F1374A42F82100FFF788FA054606E040
:1019B000FFF784FA401B022801D90320A7E6202064
:1019C000022191FAA1F1B1FA81F108430121B1EBB1
:1019D000601F02D12948006810E02020022191FAFE
:1019E000A1F1B1FA81F108430221B1EB601F03D1EB
:1019F0002248006A02E01EE02048406A20210222BC
:101A000092FAA2F2B2FA82F2114301F01F0201210E
:101A1000914008400028CBD01848006820F0F8001A
:101A2000F82292FAA2F2B2FA82F2A1699140084336
:101A30001249086044E00020012191FAA1F1B1FAB5
:101A400081F10F4A42F82100FFF738FA054606E017
:101A5000FFF734FA401B022801D9032057E6202063
:101A6000022191FAA1F1B1FA81F108430121B1EB10
:101A7000601F07D10148006814E000000010024018
:101A8000000042422020022191FAA1F1B1FA81F135
:101A900008430221B1EB601F02D1FA48006A01E05D
:101AA000F848406A2021022292FAA2F2B2FA82F2A7
:101AB000114301F01F020121914008400028C7D1C5
:101AC000207800F00800082846D1E06980B30120A2
:101AD00090FAA0F1B1FA81F1EB4A02EB8101C1F871
:101AE0008004FFF7EBF9054606E0FFF7E7F9401B36
:101AF000022801D903200AE66020022191FAA1F10F
:101B0000B1FA81F108430121B1EB601F02D1DD4838
:101B1000006810E06020022191FAA1F1B1FA81F190
:101B200008430221B1EB601F03D1D648006A02E0EE
:101B300013E0D448406A6021022292FAA2F2B2FA7B
:101B400082F2114301F01F02012191400840002858
:101B5000CBD00120FFF710F841E00021012090FADE
:101B6000A0F0B0FA80F0C84A02EB8000C0F8801400
:101B7000FFF7A4F9054606E0FFF7A0F9401B02288D
:101B800001D90320C3E56020022191FAA1F1B1FA45
:101B900081F108430121B1EB601F02D1B94800680F
:101BA0000FE06020022191FAA1F1B1FA81F108431E
:101BB0000221B1EB601F02D1B248006A01E0B148D6
:101BC000406A6021022292FAA2F2B2FA82F2114332
:101BD00001F01F020121914008400028CCD120785B
:101BE00000F00400042875D100BFA648C06940F089
:101BF0008050A449C8610846C06900F08050009038
:101C000000BF00BFA148006840F480709F49086091
:101C1000FFF754F9054606E0FFF750F9401B64282A
:101C200001D9032073E59948006800F4807000280A
:101C3000F2D000BF9348006A20F001009149086289
:101C40000846006A20F00400086200BFFFF736F97A
:101C5000054608E0FFF732F9401B41F2883188421F
:101C600001D9032053E54020022191FAA1F1B1FAF4
:101C700081F108430121B1EB601F02D18148006866
:101C80000FE04020022191FAA1F1B1FA81F108435D
:101C90000221B1EB601F02D17A48006A01E0794865
:101CA000406A4021022292FAA2F2B2FA82F2114371
:101CB00001F01F020121914008400028CAD100BF55
:101CC0002069012807D16F48006A40F001006D4982
:101CD000086228E09EE0206958B96A48006A20F04E
:101CE0000100684908620846006A20F004000862A2
:101CF00019E0206905280BD16248006A40F0040011
:101D0000604908620846006A40F0010008620AE083
:101D10005C48006A20F001005A4908620846006ADF
:101D200020F00400086200BF2069C8B3FFF7C6F8BE
:101D3000054608E0FFF7C2F8401B41F288318842AF
:101D400001D90320E3E44020022191FAA1F1B1FA84
:101D500081F108430121B1EB601F02D149480068BD
:101D60000FE04020022191FAA1F1B1FA81F108437C
:101D70000221B1EB601F02D14248006A01E04148F4
:101D8000406A4021022292FAA2F2B2FA82F2114390
:101D900001F01F020121914008400028CAD039E01B
:101DA000FFE7FFF78BF8054608E0FFF787F8401BD1
:101DB00041F28831884201D90320A8E44020022161
:101DC00091FAA1F1B1FA81F108430121B1EB601F51
:101DD00002D12C4800680FE04020022191FAA1F1C5
:101DE000B1FA81F108430221B1EB601F02D125480D
:101DF000006A01E02348406A4021022292FAA2F2DE
:101E0000B2FA82F2114301F01F0201219140084011
:101E10000028CAD1E06A00287ED01A48406800F441
:101E20008030B0F5803F0ED11648406800F00C00BD
:101E3000082808D11348C06A00F48030B0F5803F0C
:101E400001D1012063E4E06A022866D10D480068F0
:101E500000F0805040B10B48C06A00F0F001606BA8
:101E6000814201D0012052E400204FF0806191FABC
:101E7000A1F1B1FA81F1044A42F82100FFF71EF8FE
:101E800005460CE000100240000042420070004095
:101E9000FFF714F8401B642801D9032037E4202001
:101EA000810591FAA1F1B1FA81F108430121B1EB69
:101EB000601F02D1D64800680FE02020810591FA0A
:101EC000A1F1B1FA81F108430221B1EB601F02D107
:101ED000CF48006A01E0CE48406A20218A0592FA84
:101EE000A2F2B2FA82F2114301F01F0201219140E5
:101EF00008400028CCD1C648C06A20F0F000616BD1
:101F00000843C349C8620846C06A20F47060216B68
:101F10000843BF49C86201E088E040E00120810633
:101F200091FAA1F1B1FA81F1BA4A42F82100FEF723
:101F3000C5FF054606E0FEF7C1FF401B642801D936
:101F400003206CE42020810591FAA1F1B1FA81F11E
:101F500008430121B1EB601F02D1AD4800680FE0DA
:101F60002020810591FAA1F1B1FA81F10843022103
:101F7000B1EB601F02D1A648006A01E0A448406AA4
:101F800020218A0592FAA2F2B2FA82F2114301F0FC
:101F90001F020121914008400028CCD046E09C4817
:101FA000C06A20F480309A49C86200214FF08060F6
:101FB00090FAA0F0B0FA80F0964A42F82010FEF7AE
:101FC0007DFF054606E0FEF779FF401B642801D936
:101FD000032024E42020810591FAA1F1B1FA81F1D6
:101FE00008430121B1EB601F02D1894800680FE06E
:101FF0002020810591FAA1F1B1FA81F10843022173
:10200000B1EB601F02D18248006A01E08048406A5B
:1020100020218A0592FAA2F2B2FA82F2114301F06B
:102020001F020121914008400028CCD1206AC0B392
:102030007748406800F00C00082873D0206A022816
:1020400071D10021C00590FAA0F0B0FA80F0714A79
:1020500042F82010FEF732FF054606E0FEF72EFF9D
:10206000401B022801D9032012E42020010591FA27
:10207000A1F1B1FA81F108430121B1EB601F02D156
:102080006348006810E02020010591FAA1F1B1FA3F
:1020900081F108430221B1EB601F03D15C48006A63
:1020A00002E0B2E05A48406A20210A0592FAA2F200
:1020B000B2FA82F2114301F01F020121914008405F
:1020C0000028CBD1606AB0F5803F0DD15048C06A7E
:1020D000616808434E49C8620846C06A20F00F0094
:1020E000E16808434A49C862D4E9090108434849FC
:1020F000496821F4741108434549486001200106EC
:1021000091FAA1F1B1FA81F1424A42F82100FEF7B9
:10211000D5FE054608E0FEF7D1FE401B022803D994
:10212000032026E46FE02CE02020010591FAA1F1C4
:10213000B1FA81F108430121B1EB601F02D13448AB
:1021400000680FE02020010591FAA1F1B1FA81F1B8
:1021500008430221B1EB601F02D12D48006A01E063
:102160002B48406A20210A0592FAA2F2B2FA82F2C2
:10217000114301F01F020121914008400028CAD0FC
:1021800043E000204FF0807191FAA1F1B1FA81F1A2
:10219000204A42F82100FEF791FE054606E0FEF7D0
:1021A0008DFE401B022801D9032007E420200105F1
:1021B00091FAA1F1B1FA81F108430121B1EB601F5D
:1021C00002D1134800680FE02020010591FAA1F127
:1021D000B1FA81F108430221B1EB601F02D10C4832
:1021E000006A01E00A48406A20210A0592FAA2F238
:1021F000B2FA82F2114301F01F020121914008401E
:102200000028CCD101E0012028E4002026E40000D1
:102210000010024000004242042808D14FF0E021A3
:10222000096941F004014FF0E022116107E04FF02D
:10223000E021096921F004014FF0E02211617047AB
:10224000704770B504462546681EB0F1807F01D303
:1022500001200FE0681E4FF0E02148610F214FF090
:10226000FF3000F053FA00204FF0E0218861072092
:102270000861002070BD10B5FFF7E2FF10BD704788
:10228000F8B50446002500262068006800F0010526
:102290002068C06800F4807625B11EB1E06B40F084
:1022A0000100E06320680068C0F3400520684069D1
:1022B00000F0010625B11EB1E06B40F00400E063C0
:1022C00020680068C0F3800525B11EB1E06B40F0C6
:1022D0000200E06320680068C0F3C00525B11EB1AC
:1022E000E06B40F00800E06320680068C0F3401530
:1022F0002068C06800F020061DB116B1204600F02D
:10230000B1FA20680068C0F3C0152068C06800F00A
:1023100080061DB116B1204600F096FB20680068CB
:10232000C0F380152068C06800F040061DB116B1EA
:10233000204600F07FFAE06B70B100BF20680068B3
:10234000009020684068009000BF00BF012084F822
:1023500039002046FFF793FFF8BD10B504460CB9CD
:10236000012010BDA06900B100E000BF94F8390061
:1023700028B9002084F83800204600F025F8022013
:1023800084F839002068C06820F400502168C860D3
:10239000204600F0C5FA2068006920F490402168CA
:1023A00008612068406920F02A002168486120689F
:1023B000C06840F400502168C8600020E06301203C
:1023C00084F839000020CCE710B586B004462F49C8
:1023D0002068884258D100BF2D48806940F4804071
:1023E0002B4988610846806900F48040019000BF55
:1023F00000BF48150290022003900320059002A917
:102400002448FEF7C7FB4FF4806002900020039041
:10241000049002A91F48FEF7BDFB1F481F49086032
:102420000020486000211D488160C1600161416158
:1024300020218161C901C161FEF774FB00BF17480B
:102440006063446200BF14481438154908601020C6
:1024500048600021124881608021C1600021016133
:10246000416181614FF48051C161FEF75BFB00BFA8
:102470000B482063446200BF002211462520FEF76E
:102480009AFD2520FEF78AFD06B010BD00380140F8
:102490000010024000080140580002405400002093
:1024A0008C00002070472DE9F04704460D46164683
:1024B00099464FF0000894F83980B8F1010F02D026
:1024C000B8F1220F65D105B116B90120BDE8F0873A
:1024D00000BF94F83800012801D10220F6E701205E
:1024E00084F8380000BF0020E06394F83900222807
:1024F00003D1322084F8390002E0122084F8390038
:10250000A684E68428E0E08C401EE084A068B0F554
:10251000805F14D14B4600228021204600F0CCFA87
:1025200008B10320D2E72F463888C0F3080021689D
:102530004860206908B9AD1C0EE06D1C0CE04B46EC
:1025400000228021204600F0B7FA08B10320BDE741
:1025500015F8010B21684860E08C0028D3DC4B465D
:1025600000224021204600F0A7FA08B10320ADE781
:1025700094F83900322803D1222084F8390002E08F
:10258000012084F8390000BF002084F8380000BF23
:102590009CE702209AE7704710B50348034908609A
:1025A0000846FDF713FE10BD003002400800002071
:1025B00008B500BF0E48406940F001000C49486171
:1025C0000846406900F00100009000BF00BF0022F3
:1025D00011460E20FEF7EFFC0E20FEF7DFFC002276
:1025E00011460F20FEF7E7FC0F20FEF7D7FC08BDD1
:1025F0000010024000B585B000BF3048806940F04F
:1026000040002E4988610846806900F04000009033
:1026100000BF00BF00BF0846806940F0100088611D
:102620000846806900F01000009000BF00BF00BFA6
:102630000846806940F0200088610846806900F003
:102640002000009000BF00BF00BF0846806940F036
:10265000040088610846806900F00400009000BF13
:1026600000BF00224FF6FF711548FEF721FC002243
:102670004EF29C011348FEF71BFC4FF6FF700190D1
:10268000012002900320049001A90D48FEF782FA70
:102690004EF29C000190012002900220049001A9BA
:1026A0000848FEF777FA80200190002002900390FE
:1026B00001A90548FEF76EFA05B000BD0010024002
:1026C00000180140001401400010014010B50948F5
:1026D000094908604FF4E1304860002106488160F4
:1026E000C16001610C21416100218161C161FFF77D
:1026F00034FE10BD0038014014000020024800687C
:10270000C0F30220704700000CED00E010B5002877
:1027100007DA0A07140E054A00F00F031B1FD454F2
:1027200003E00A07130E024A135410BD18ED00E02F
:1027300000E400E010B5FEF7C7FBFFF79CFD10BDFD
:1027400010B594B001200690000408900420099070
:102750008003079002200E90C1030F914FF4E01107
:10276000109111904FF4C06112914021139106A86D
:10277000FEF782FF0F2001900220029000200390BC
:102780004FF48060049000200590022101A8FEF71C
:1027900065FCFEF77DFE4FF47A71B0FBF1F4204644
:1027A000FFF74FFD0420FFF737FD0120010791FAE5
:1027B000A1F1B1FA81F1054A42F821000022114647
:1027C000801EFEF7F8FB14B010BD0000000042426E
:1027D0001448006840F0010012490860084640684B
:1027E000114908400F494860084600680F490840F1
:1027F0000C4908600846006820F4802008600846FC
:10280000406820F4FE0048600846006820F0A050B0
:1028100008604FF47F0088600020C862C803044944
:1028200008607047001002400000FFF0FFFFF6FE56
:1028300008ED00E010B504462068C06820F04000B4
:102840002168C86094F83900322803D1222084F826
:10285000390002E0012084F839002046FFF79BFE92
:10286000002010BD70B50446002694F83960222E71
:1028700001D0322E52D1A068B0F5805F13D1A56A85
:10288000206940B920684068C0F308002880A06A29
:10289000801CA06219E020684068C0B22880A06A4D
:1028A000401CA06211E0206938B920684068C1B2BC
:1028B000A26A501CA062117007E02068406800F016
:1028C0007F01A26A501CA0621170E08D401E80B290
:1028D000E08508BB2068C06820F020002168C8603F
:1028E00094F83900322803D1122084F839000EE020
:1028F0002068C06820F480702168C8602068406942
:1029000020F0010021684861012084F83900204648
:10291000FFF7C8FD002070BD0020FCE70220FAE7A9
:102920002DE9F041044600252068006920F440505C
:10293000E1680843216808612169A068084361696A
:1029400040EA01052068C06841F20C6188432843D1
:102950002168C8602068406920F44070A16908437C
:102960002168486137492068884234D1FEF7C2FDAA
:1029700000EBC00101EB001061688900B0FBF1F0D1
:102980006421B0FBF1F6FEF7B5FD00EBC00101EBF1
:10299000001061688900B0FBF1F7FEF7ABFD00EBBA
:1029A000C00101EB001061688900B0FBF1F0642107
:1029B000B0FBF1F000EBC00101EB0010A7EB8000D1
:1029C000322101EB00106421B0FBF1F066F31F101F
:1029D0002168886033E0FEF777FD00EBC00101EB72
:1029E000001061688900B0FBF1F06421B0FBF1F6E2
:1029F000FEF76AFD00EBC00101EB00106168890081
:102A0000B0FBF1F7FEF760FD00EBC00101EB001039
:102A100061688900B0FBF1F06421B0FBF1F000EBDC
:102A2000C00101EB0010A7EB8000322101EB001088
:102A30006421B0FBF1F066F31F1021688860BDE8E7
:102A4000F08100000038014010B50146002391F8E4
:102A50003930122B01D0322B2CD18868B0F5805F31
:102A60000FD10A6A1088C0F308000C68606008691A
:102A700018B9086A801C086209E0086A401C0862EC
:102A800005E00C6A601C086220780C686060C88CE5
:102A9000401E80B2C88458B90868C06820F0800021
:102AA0000C68E0600868C06840F040000C68E060B6
:102AB000002010BD0220FCE72DE9F04104460E463F
:102AC00017461D464FF00008FEF7F8F980469FBBF9
:102AD0002BE0681C48B32DB1FEF7F0F9A0EB08001D
:102AE000A84222D92068C06820F080002168C86010
:102AF0002068C06820F020002168C8602068C06895
:102B000020F480702168C8602068406920F00100CE
:102B100021684861012084F8390000BF002084F852
:102B2000380000BF0320BDE8F08120680068304015
:102B3000B04202D1012001E003E000200028C8D00B
:102B400035E02AE0681C40B32DB1FEF7B7F9A0EBE1
:102B50000800A84221D92068C06820F080002168C0
:102B6000C8602068C06820F020002168C860206824
:102B7000C06820F480702168C8602068406920F037
:102B8000010021684861012084F8390000BF00205D
:102B900084F8380000BF0320C5E720680068304093
:102BA000B04201D1012000E000200028CAD100205D
:102BB000B9E7000010B50248FFF762FB10BD000046
:102BC00014000020014A024900F013B8152C000837
:102BD0001000002002E008C8121F08C1002AFAD124
:102BE00070477047002001E001C1121F002AFBD18D
:102BF00070472DE9F04116460F460446002503E0D4
:102C00003946B047641C6D1C20780028F8D128464E
:102C1000BDE8F08113B50C464FF6FF7301226946FB
:102C20000248FFF740FC00981CBD00001400002083
:102C3000FEF752F9FFF784FDFFF7DCFCFFF7B8FC65
:102C4000FFF7AAFCFFF742FD02A0FFF7BBFF00BFA2
:102C5000FEE7000048656C6C6F20555341525431BB
:102C60000A00000000000000010203040102030446
:102C700006070809942C000800000020140000003A
:102C8000D42B0008A82C000814000020B402000077
:102C9000E42B000800A24A0400000000000000002D
:082CA00000000000000000002C
:04000005080001519D
:00000001FF
