:020000040800F2
:10000000805F00208960000845040008759B000897
:1000100047040008490400084B04000800000000E1
:100020000000000000000000000000004D04000877
:100030004F04000800000000FF9A0008E7030008D2
:10004000A3600008A3600008A3600008A360000884
:10005000A3600008A3600008A3600008A360000874
:10006000A3600008A3600008A3600008A360000864
:10007000A3600008A3600008A3600008A360000854
:10008000A3600008A3600008A3600008A360000844
:10009000A3600008A3600008A3600008A360000834
:1000A000A3600008A3600008A3600008A360000824
:1000B000A3600008A3600008A3600008A360000814
:1000C000A3600008A3600008A3600008A360000804
:1000D000A3600008AF050008A3600008A360000843
:1000E000A3600008A3600008A360000800000000EF
:1000F0000000000000000000000000000000000000
:100100000000000000000000A3600008A3600008D9
:10011000A3600008A3600008A3600008A3600008B3
:10012000A3600008A3600008A3600008A3600008A3
:10013000A3600008FD1F0008A3600008A36000087A
:10014000A3600008A3600008A3600008A360000883
:1001500000F002F800F063F80AA090E8000C824476
:100160008344AAF10107DA4501D100F058F8AFF253
:10017000090EBAE80F0013F0010F18BFFB1A43F085
:100180000103184724F2010044F201000A444FF031
:10019000000C10F8013B13F0070408BF10F8014BE6
:1001A0001D1108BF10F8015B641E05D010F8016B2B
:1001B000641E01F8016BF9D113F0080F1EBF10F88F
:1001C000014BAD1C0C1B09D16D1E58BF01F801CBB2
:1001D000FAD505E014F8016B01F8016B6D1EF9D535
:1001E0009142D6D37047000000230024002500264A
:1001F000103A28BF78C1FBD8520728BF30C148BF8A
:100200000B6070471FB51DF0CFFC040000200021DB
:100210001DF0EEFC401C60601FBD10B510BD1DF050
:100220009EFC1146FFF7EEFF00F0A5F81DF0CEFC96
:1002300003B4FFF7F2FF03BC1DF0D2FC08B500F0D9
:1002400049FA09F0BBFC0BF00AFB002003460090C2
:1002500017A218A118A00AF01EFBA8B117A000BF92
:1002600007F047FE1CF0BBFC15F08EFC1CA007F04D
:1002700040FE0FF053F820A00EF076FD1DF07CF844
:10028000BDE808401CF0E4BF1DA0E9E71CB514213F
:100290000A204FF400630022CDE90001AFF26301B0
:1002A0001EA008F055FE08B108F007FE00201CBD96
:1002B000656C6D002F0000007364300046696C654A
:1002C0002053797374656D20696E697469616C7A05
:1002D0006174696F6E206661696C6564210A000053
:1002E0005443502F495020696E697469616C697A72
:1002F0006564210A0000000075617274310000001D
:1003000046696C652053797374656D20696E6974F4
:1003100069616C697A6564210A000000696E69741C
:100320000000000004460D4616A007F0E2FD21463D
:100330001EA007F0DEFD294621A007F0DAFDFEE74A
:1003400010B500F059F807F0F4FD05F0BDFE08F017
:100350006CFA09F0C4F81F491F4807F044FF08F081
:10036000A0FBFFF793FF09F0BFF806F0AAF8BDE87D
:10037000104008F0ADBB10B509F0AAFBFFF7E0FF95
:10038000002010BD0A0D2057726F6E6720706172D9
:10039000616D657465722076616C75652064657445
:1003A0006563746564206F6E0D0A000020202020B4
:1003B00020202066696C65202025730D0A0000004E
:1003C000202020202020206C696E65202025640DCF
:1003D0000A00000000000120805F002000214FF093
:1003E000006005F0E4BD10B507F092FA05F07AFE62
:1003F000BDE8104007F097BA10B5FFF7EFFF0D48C2
:1004000064210068B0FBF1F0401EB0F1807F0AD299
:100410004FF0E0214861084AF02082F8140D0020D6
:1004200088610720086100F0EDF8BDE8104003A0E6
:1004300007F0AABD280000200FE000E0756172748B
:10044000310000007047FEE7FEE7FEE770477047A7
:100450007FB50C46050004D135228F498FA007F0E7
:10046000E4FD24B936228C4991A007F0DEFDED6B46
:1004700020680090207900F00F010020082902D0A8
:10048000092903D006E0ADF8040003E04FF48051E1
:10049000ADF80410616811F0300F04D0C1F3011100
:1004A000012903D006E0ADF8060003E04FF4005147
:1004B000ADF80610616811F0C00F06D0C1F38111CC
:1004C000012905D0022906D009E0ADF8080006E0B0
:1004D0004FF4C06101E04FF48061ADF80810ADF851
:1004E0000C000C20ADF80A006946286804F044FFAF
:1004F0000121286805F051F804B0002070BD70B5E6
:100500000D46040005D164495E22103163A007F056
:100510008CFD0122E06B40F22553102D0FD0112DE0
:100520001DD190F9041001F01F04A240490989006F
:1005300001F1E021C1F88021006800220CE090F96F
:10054000041001F01F04A2404909890001F1E021D3
:10055000C1F8002100680122194605F046F8002084
:1005600070BD70B50D46040005D14B497A221E318D
:100570004AA007F05AFDE06B01688D800068018891
:100580004906FCD5012070BD10B5040005D14249D3
:100590008822293141A007F048FDE16B4FF0FF3080
:1005A00009680A88920601D58888C0B210BD70B566
:1005B000434C07F0ADF940F225552946206805F077
:1005C000E0FB38B101213F480DF06FFC294620685F
:1005D00005F042FC40F226652946206805F0D1FB73
:1005E00018B12946206805F037FC0821206805F07D
:1005F0004BFB012802D13348FFF7C6FFBDE870402E
:1006000007F091B938B5244801211C3845680846DF
:1006100003F081FC0121042003F07DFC012188030B
:1006200003F079FC03208DF8020004208DF803000C
:100630000002254CADF800006946204604F01DFA82
:1006400018208DF803006015ADF8000069462046BB
:1006500004F013FA1B48104A4FF4E131143A856450
:10066000C0E91021164C204600798DF800000020CA
:100670008DF801008DF8020001208DF80300684616
:1006800005F04EFC01B02346BDE8304040F20312B5
:100690000EA10C480DF0E3BB38DC010873657269EC
:1006A000616C20213D2052545F4E554C4C0000009F
:1006B00063666720213D2052545F4E554C4C00002C
:1006C000000000209C020020000801407561727447
:1006D0003100000038B500F020F80121102003F0AF
:1006E0001AFC1020ADF8000001218DF80210264CF4
:1006F0008DF803006946204604F0BFF9102120461A
:1007000004F08AFB022008F0DAFC20A121A002F00C
:1007100022FFBDE8384001F050BE38B50121052068
:1007200003F0F9FBE020ADF8000003208DF8020093
:100730001820194D8DF803006946284604F09DF9EC
:1007400016A21849184801F0F4FF01208DF80200A4
:10075000164C10208DF803002560A0800121042094
:1007600003F0D9FBA188ADF80010206804F000FB6D
:100770006946206804F081F90A48234607A20CA1C3
:1007800070300DF0CFFC38BD00100140737069313E
:10079000300000007364300000080140737069315C
:1007A00000000000F002002000300140080000209E
:1007B000737069313000000010B501218C032046B0
:1007C00003F0E5FB2046BDE81040002103F0DFBB4D
:1007D0002DE9F04F87B004460020009020680128E2
:1007E00004D018B19521FEA0FFF79CFD606830B1E0
:1007F000B0F5000F03D09621F9A0FFF793FDA06894
:1008000030B1B0F5800F03D09721F5A0FFF78AFD36
:10081000E068C0B1B0F5003F15D0B0F5802F12D020
:10082000B0F5C02F0FD0B0F5002F0CD0B0F5202FB1
:1008300009D0B0F5402F06D0B0F5602F03D0982135
:10084000E7A0FFF76FFD20694FF4803728B1B84269
:1008500003D09921E2A0FFF765FD60694FF480465F
:1008600028B1B04203D09A21DDA0FFF75BFDA0695B
:1008700030B1B0F5005F03D09B21D9A0FFF752FD46
:10088000E069B0F5805F04D018B19C21D4A0FFF7D7
:1008900049FD206AB0F5006F04D018B19D21D0A0A9
:1008A000FFF740FD606AB0F5806F04D018B19E215B
:1008B000CBA0FFF737FDA06A4FF4007528B1A8421E
:1008C00003D09F21C6A0FFF72DFDE06A802804D049
:1008D00018B1A021C2A0FFF725FD206B48B1202848
:1008E00007D0402805D0602803D0A121BCA0FFF785
:1008F00019FD606B102804D018B1A221B8A0FFF731
:1009000011FDA06BB0F1004F04D018B1A321B4A029
:10091000FFF708FDE06BA84207D0B0F5407F04D098
:1009200018B1A421AEA0FFF7FDFC206C402807D031
:10093000802805D0C02803D0A521A9A0FFF7F2FC8C
:10094000606C28B1202803D0A621A5A0FFF7EAFCFF
:10095000A06C28B1082803D0A721A1A0FFF7E2FCD2
:10096000E06C012804D018B1A8219DA0FFF7DAFCA3
:10097000206DA0F58061043908D0042806D028B184
:10098000102803D0A92196A0FFF7CCFC606DA0F53C
:100990008061023906D0022804D018B1AA2190A0A3
:1009A000FFF7C0FC206EB84203D3AB218CA0FFF749
:1009B000B9FC606E28B1802803D0AC2188A0FFF775
:1009C000B1FCA06E48B1102807D0202805D03028EF
:1009D00003D0AD2182A0FFF7A5FCE06E082804D06B
:1009E00018B1AE217EA0FFF79DFC206F042804D033
:1009F00018B1AF217AA0FFF795FC606F022804D0F0
:100A000018B1B02176A0FFF78DFCA06FB84204D0DA
:100A100018B1B12172A0FFF785FCE06FB84203D393
:100A2000B2216FA0FFF77EFCD4F8800030B1B0F1A6
:100A3000806F03D0B4216AA0FFF774FCD4F884005F
:100A40004FF00078404504D018B1B52164A0FFF7FD
:100A500069FCD4F8880030B1B0F1807F03D0B621B2
:100A60005FA0FFF75FFCD4F88C004FF400194845F5
:100A700004D018B1B7215AA0FFF754FCD4F8900065
:100A80004FF4004A4FF4404BA0B1B04212D0504551
:100A900010D058450ED0B8420CD0B0F5A03F09D0C8
:100AA000B0F5C03F06D0B0F5E03F03D0B8214CA070
:100AB000FFF738FCD4F89400802804D018B1B9218D
:100AC00047A0FFF72FFCD4F89800402804D018B1B5
:100AD000BA2143A0FFF726FCD4F89C0048B10828AF
:100AE00007D0102805D0182803D0BB213CA0FFF761
:100AF00019FCD4F8A000042804D018B1BC2138A0F7
:100B0000FFF710FCD4F8A400404504D018B1BD2173
:100B100033A0FFF707FCD4F8A800B84204D018B1FE
:100B2000BE212FA0FFF7FEFBD4F8AC00B0F5003FCC
:100B300023D0B0F5802F20D0B0F5002F1DD0B0F518
:100B4000801F1AD0484518D0B0F5800F15D0B0F1ED
:100B5000817F12D0B0F1827F0FD0B0F1847F0CD0B2
:100B6000B0F1887F09D0B0F1907F06D0B0F1A07FBE
:100B700003D0BF211AA0FFF7D5FBD4F8B000B0F521
:100B8000807F23D0A84221D0B0F5806F1ED0B0F571
:100B9000006F1BD0B0F5805F18D0B0F5005F15D0A6
:100BA000B0F1012F12D0134988420FD01249884268
:100BB0000CD01249884209D01149884206D0114907
:100BC000884203D0C02106A0FFF7ACFBD4F8B400E4
:100BD0001F2803D9C12102A0FFF7A4FB14E00000E5
:100BE000647269766572735C73746D33325F6574B9
:100BF000682E6300000200010004000100080001EB
:100C00000010000100200001D4F8B80060B1B0422B
:100C10000AD0504508D0584506D0022804D0C22139
:100C2000AFF24400FFF77EFBF84D286920F01C0668
:100C300001A803F0F9F8F6490298F64A01449142F6
:100C400002D246F0080606E0F3490844F349884218
:100C500001D246F00C062E612968F1480140D4E922
:100C600001021043E26854F8103F1A4310436268CF
:100C70001043A2681043E26810432269104362697E
:100C80001043A2691043E2691043226A1043626A6A
:100C9000104308432860F4E90A010843D4E902122A
:100CA000114308432169084361690843A169084366
:100CB000E16908436860206AA860606AE860A96921
:100CC0004FF641700140D4E90B021043238D626B53
:100CD00042EA03421043A26B1043E26B1043084305
:100CE000A861D4E910010843E861CE4A9169CE4871
:100CF0000140D4E912031843D4E914352B431843B7
:100D0000A36D1843E36D1843236E1843636E1843B5
:100D1000A36E184308439061D4E91B010843616F37
:100D200054F8783F19430843616840EA8100A1689C
:100D3000084340F40000106007B00120BDE8F08FC8
:100D40000021016041608160C16001614161816198
:100D5000C161016241628162C162016341634022FB
:100D60008163C0E90F122022C0E91121C16401652D
:100D7000416581658022C165C0E918128166C1663E
:100D800001674167D2048167C0E91F1252105310F6
:100D9000C0E921231311C0E92331C0F89410C0F831
:100DA0009810C0F89C10C0E928121212C0E92A124B
:100DB0005212C0E92C21C0F8B810704710B5994CF8
:100DC00058B1012805D040F2B571AFF2EC10FFF731
:100DD000A9FAA06940F0020002E0A06920F0020038
:100DE000A06110BD10B58F4C58B1012805D040F25C
:100DF0009E71AFF21420FFF795FAA06940F40050FD
:100E000002E0A06920F40050A06110BD10B57F4C35
:100E100058B1012805D040F21931AFF23C20FFF75C
:100E200081FA206840F0040002E0206820F004000D
:100E3000206010BD7B48816941F480118161704759
:100E400010B5724C58B1012805D040F20231AFF212
:100E50007020FFF767FA206840F0080002E0206881
:100E600020F00800206010BD10B50120FFF7E8FF5A
:100E7000FFF7E0FF0120FFF7C9FF0120FFF7B2FFF6
:100E8000BDE81040012099E770B5684A0023146856
:100E90002568002D05DA002070BDA668C55CF554F4
:100EA0005B1C8B42F9D31068C1F30C0141600168EF
:100EB00041F0304101605B494B695B0703D5042376
:100EC0004B6100234B600368DC0201D5C06808E079
:100ED0009B0201D5086904E00968C1F38401084454
:100EE00010301060012070BD70B5504900220546D9
:100EF0004B6810461C68002C01DA002070BD2604E7
:100F00000DD4E6050BD5A60509D5C4F30D40001F89
:100F100003E09C68A45CAC54521C8242F9D34B6839
:100F20004FF000421A603F4A5469240603D58024DA
:100F30005461002494605C68650401D5DA6808E0B7
:100F4000240401D5D26804E01268C2F384021A4472
:100F500010324A6070BD354900204968096811F0B7
:100F6000802F05D1CA0503D58A0501D5C1F30D40EF
:100F700070472E484FF0004241680A604A685304A7
:100F800001D5C96809E01304264A01D5D16804E0F7
:100F90001268C2F38402114410314160704738B5C1
:100FA000054600200C4600901F2D05D94FF41F71F7
:100FB000AFF2D430FFF7B6F91F2C05D940F27D21EE
:100FC000AFF2E430FFF7AEF9104A106900F01C01EF
:100FD0004FF6FF7000EAC52008434FF4F86101EABC
:100FE0008411014321F0020040F00100106110481B
:100FF0000099491C00911169C90702D000998142EA
:10100000F6D30099814215D1002038BD00800240FE
:1010100000D3CEFEC0E1E40040F1E9FD40787D015F
:101020000F8120FF00900240233FDEF810000020D7
:10103000FFFF0400506980B2E7E7F8B505460020DD
:1010400016460C4600901F2D05D94FF42B71AFF2B8
:101050007040FFF767F91F2C05D940F2AD21AFF2C0
:101060008040FFF75FF9FB4B18695E6100F01C01DF
:101070004FF6FF7000EAC52008434FF4F86101EA1B
:101080008411014341F003001861F3480099491CA1
:1010900000911969C90702D000998142F6D30099DD
:1010A000814201D10020F8BD0120F8BD70B50C4689
:1010B00005461F2805D94FF43771AFF2DC40FFF722
:1010C00031F93CB1012C05D040F2DD21AFF2F04006
:1010D000FFF728F900212846FFF761FF14B140F41B
:1010E000804201E020F4804200212846FFF7A5FF5E
:1010F000002800D0012070BDD64900208969C907A9
:1011000000D001207047D348816941F0010181611D
:10111000704710B5CF4C58B1012805D040F24F317F
:10112000AFF24450FFF7FEF8A06940F0010002E082
:10113000A06920F00100A06110BD70B50025044633
:10114000B0F5007F0DD0402C0BD0202C09D0102CF6
:1011500007D0082C05D040F26E31AFF27C50FFF77B
:10116000E1F8BC48806B204200D00125284670BDC4
:1011700070B500250446B0F5007F0DD0402C0BD093
:10118000202C09D0102C07D0082C05D040F2893132
:10119000AFF2B450FFF7C6F8AE48806B204200D0E3
:1011A0000125284670BD70B505460E4630F4027024
:1011B00000D12DB940F2A331AFF2DC50FFF7B2F805
:1011C000A44C56B1012E05D04FF46971AFF2F05026
:1011D000FFF7A8F8E06BA84301E0E06B2843E06369
:1011E00070BD70B50D4604000AD0082C08D0102C34
:1011F00006D0182C04D040F2C13198A0FFF792F825
:101200009449A888214408642878D5F8012040EA48
:101210000220486470BD70B50C4605000AD0082D48
:1012200008D0102D06D0182D04D040F2DD318BA04F
:10123000FFF778F887482918086C020A6271207154
:10124000486C010EE170010CA170010A6170207000
:1012500070BD70B50D460446082808D0102C06D085
:10126000182C04D040F2FD317CA0FFF75BF87948E0
:10127000044455B1012D04D040F2FE3177A0FFF7B0
:1012800051F8206C40F0004002E0206C20F000405B
:10129000206470BD70B50D460446082808D0102C97
:1012A00006D0182C04D040F21E416CA0FFF73AF88B
:1012B0006848044435B1082D08D040F21F4167A0AA
:1012C000FFF730F8206C40F0804002E0206C20F006
:1012D0008040206470BD70B50C460546082808D0D3
:1012E000102D06D0182D04D040F243415BA0FFF72B
:1012F00019F8B4F1005F13D0B4F1805F10D0B4F1ED
:10130000006F0DD0B4F1806F0AD0B4F1007F07D028
:10131000B4F1807F04D040F2444150A0FFF702F8BE
:101320004C482844016C21F07C510164016C21433C
:10133000016470BDF0B54E4C00234FF48016551E6D
:10134000206011E0C3EB431700EB031407EB831796
:1013500001EB0717A7602660AB4203D204F1100728
:10136000E76000E0E0605B1C9342EBD34149086119
:10137000F0BDF0B53E4D00245E1E4FF4001C286009
:1013800011E000BFC4EB441707EB841700EB041512
:1013900001EB071E02EB0717C5E902E7B44201D1D2
:1013A000C5F800C0641C9C42ECD332490861F0BD12
:1013B00070B500250C460646B1F1004F44D0B4F19B
:1013C000804F41D0B4F1005F3ED0B4F1805F3BD09C
:1013D000B4F1006F38D0B4F1806F35D0B4F1007F34
:1013E00032D0B4F5001F2FD0B4F5801F2CD0B4F547
:1013F000003F29D0B4F5803F26D0B4F5004F23D06C
:10140000B4F5804F20D0B4F5005F1DD0B4F5805FF7
:101410001AD0B4F5006F17D0B4F5806F14D0B4F5BE
:10142000007F11D0B4F5807F0ED0802C0CD0782CAA
:101430000AD0042C08D0022C06D0012C04D040F293
:10144000C34106A0FEF76EFF3068204200D00125A0
:10145000284670BD00800240FFFF04006472697678
:101460006572735C73746D33325F6574682E6300EC
:1014700010000020009002400078C0F3C3007047C5
:10148000016841F000410160704710B5044659B150
:10149000012905D04FF49E61AFF24000FEF742FFF4
:1014A000206840F0804002E0206820F0804020600A
:1014B00010BD70B50C460546B1F1804F08D0B4F1AF
:1014C000005F05D040F20A51AFF27000FEF72AFF2C
:1014D000286820432860BCE770B50C0005460ED094
:1014E000B4F5800F0BD0B4F5000F08D0B4F5400F61
:1014F00005D040F21E51AFF29C00FEF713FF2868A2
:1015000020432860A5E710B5044659B1012905D04C
:1015100040F22E51AFF2BC00FEF704FF206820F02D
:10152000006002E0206840F00060206010BD10B54F
:10153000044659B1012905D040F24651AFF2E4000A
:10154000FEF7F0FE206840F4001002E0206820F46E
:101550000010206010BD10B5044659B1012905D016
:1015600040F25E51AFF20C10FEF7DCFE206840F452
:10157000801002E0206820F48010206010BD10B5BB
:10158000044659B1012905D040F27651AFF234102A
:10159000FEF7C8FE206820F0806002E0206840F07E
:1015A0008060206010BD10B5044659B1012905D0F6
:1015B00040F28E51AFF25C10FEF7B4FE206840F0AE
:1015C000007002E0206820F00070206010BD2DE95E
:1015D000F0414FF4005714460D460646B94205D374
:1015E00040F2A651AFF28C10FEF79CFEBC4205D330
:1015F00040F2A751AFF29C10FEF794FE706845EAE6
:10160000044108437060BDE8F081F0B5F74C002359
:101610004FF0004644F2F057551E606013E000BFE3
:10162000C3EB431C00EB03140CEB831C01EB0C1C01
:1016300084E8C010AB4204D204F1100CC4F80CC012
:1016400000E0E0605B1C9342EAD3E949C860F0BD6A
:101650002DE9F0479246E54A894600214FF00046C1
:101660004FF4BE675C1E48F2F05C506013E000BFB0
:10167000C1EB411505EB811500EB011209EB0518D3
:101680000AEB0515C2E90285A142C2E9006701D152
:10169000C2F804C0491C9942EAD3D549C860BDE8E4
:1016A000F08770B500250C460646B1F1004F30D0EA
:1016B000B4F1804F2DD0B4F5004F2AD0B4F5804F4F
:1016C00027D0B4F5005F24D0B4F5805F21D0B4F505
:1016D000006F1ED0B4F5806F1BD0B4F5007F18D01A
:1016E000B4F5807F15D0802C13D0402C11D0202C45
:1016F0000FD0102C0DD0082C0BD0042C09D0022CAC
:1017000007D0012C05D040F22261AFF2B020FEF7E5
:1017100009FE3068204200D00125284699E601687C
:1017200041F00041016070470068C0F30D40704710
:1017300010B5044659B1012905D040F24E61AFF20F
:10174000E420FEF7EFFD606820F0004002E06068F2
:1017500040F00040606010BD10B5044659B1012949
:1017600005D040F26661AFF20C30FEF7DBFD606839
:1017700040F4004002E0606820F40040606010BD6A
:1017800010B5044659B1012905D040F27E61AFF28F
:101790003430FEF7C7FD606840F4804002E06068C6
:1017A00020F48040606010BD10B5044659B1012995
:1017B00005D04FF4D361AFF25C30FEF7B3FD606843
:1017C000C0F30C4010BD8088C0F30C0010BD8848E9
:1017D000016841F0010101607047854900200968F6
:1017E000C90700D00120704770B500250446B0F14C
:1017F000005F30D0B4F1805F2DD0B4F1006F2AD0FB
:10180000B4F5803F27D0B4F5004F24D0B4F5804F15
:1018100021D0B4F5005F1ED0B4F5806F1BD0B4F5B5
:10182000007F18D0B4F5807F15D0802C13D0402CC9
:1018300011D0202C0FD0102C0DD0082C0BD0042C44
:1018400009D0022C07D0012C05D040F2E561AFF29F
:10185000F430FEF767FD66484069204200D001255C
:101860002846F6E510B504466248044200D12CB97A
:1018700040F20971AFF21C40FEF754FD5C48446130
:1018800010BD70B500250446B0F1005F30D0B4F152
:10189000805F2DD0B4F1006F2AD0B4F5803F27D0FF
:1018A000B4F5004F24D0B4F5804F21D0B4F5005FDB
:1018B0001ED0B4F5806F1BD0B4F5007F18D0B4F5FE
:1018C000807F15D0802C13D0402C11D0202C0FD02D
:1018D000102C0DD0082C0BD0042C09D0022C07D0D2
:1018E000012C05D040F22B71AFF29040FEF71AFDAB
:1018F0003F484069204200D001252846A9E510B59F
:1019000004463C48044200D12CB940F24F71AFF27A
:10191000B440FEF707FD3648446110BD34484069C5
:1019200000F0010070473248406900F04000704705
:101930002F4900208969C90200D50120704770B580
:1019400004462C480E46044200D12CB940F2DE7108
:10195000AFF2F840FEF7E6FC254D56B1012E05D05A
:1019600040F2DF71AFF20C50FEF7DCFCE869204377
:1019700001E0E869A043E8616BE570B50025044625
:10198000B0F1805F08D0B4F5803F05D040F2F97126
:10199000AFF23850FEF7C6FC1548006A204200D06E
:1019A0000125284655E51248006AC0F34A407047B1
:1019B0000F48006A80B270470D48806C70470C4831
:1019C000C06C70470A48006D70470948406D704709
:1019D000074900204860704705490020886070472B
:1019E0000548C16A41F00041C16270471000002003
:1019F000009002400018FEFF00800240FA4A0021D9
:101A000050F821309362491C0829F9D3EDE710B54D
:101A1000F54C58B1012805D040F67F01AFF2C45013
:101A2000FEF780FCE06A40F4007002E0E06A20F417
:101A30000070E06210BD70B500250446402807D054
:101A4000202C05D040F69A01AFF2F050FEF76AFC68
:101A5000E548C06A204200D001252846F9E410B5C7
:101A6000E14C58B1012805D04FF40B61AFF214607E
:101A7000FEF758FCE06A40F0040002E0E06A20F063
:101A80000400E06210BD10B5D74C58B1012805D054
:101A900040F6C701AFF23C60FEF744FCE06A40F05C
:101AA000020002E0E06A20F00200E06210BD10B522
:101AB000CD4C58B1012805D040F6DE01AFF264608C
:101AC000FEF730FCE06A40F0010002E0E06A20F03E
:101AD0000100E06210BD10B5C34C60B1012805D013
:101AE00040F6F701AFF28C60FEF71CFCD4F8000161
:101AF00040F0080003E0D4F8000120F00800C4F82A
:101B0000000110BD10B5B84C60B1012805D040F6F9
:101B10000E11AFF2B860FEF705FCD4F8000140F0FA
:101B2000040003E0D4F8000120F00400C4F8000130
:101B300010BD10B5AC4C60B1012805D040F62511A0
:101B4000AFF2E860FEF7EEFBD4F8000120F00200EF
:101B500003E0D4F8000140F00200C4F8000110BD19
:101B6000A148D0F8001141F00101C0F800113CE794
:101B700070B504460D4630F4031002D09B48044271
:101B800000D12CB94FF41561AFF23070FEF7CAFBEB
:101B90003DB1012D05D040F65111AFF24070FEF776
:101BA000C1FB914AE0000AD5D2F80C1124F0805014
:101BB0000DB1814300E00143C2F80C1149E4D2F8B1
:101BC00010010DB1A04300E02043C2F8100140E431
:101BD00070B500250446B0F5001F14D0B4F5004FD1
:101BE00011D0B4F5804F0ED0814884420BD0A4F1BF
:101BF0008050403807D0203005D040F68411AFF235
:101C0000A470FEF78FFB7848E10002D5D0F80411EC
:101C100001E0D0F80811214204D0D0F80C01204294
:101C200000D00125284614E410B50446B0F5807FA5
:101C300023D0B4F5827F20D0B4F5847F1DD0B4F5D5
:101C4000867F1AD0B4F5887F17D0B4F5A67F14D05C
:101C5000B4F5A87F11D0B4F5B47F0ED0B4F5CA7F27
:101C60000BD0B4F5CC7F08D0B4F5E27F05D040F6B8
:101C7000B811AFF61800FEF755FB5B48205810BDB1
:101C80005C48016841F020010160AEE659480168F6
:101C900041F010010160A8E65648016841F00801D2
:101CA0000160A2E65348016841F0040101609CE62E
:101CB00010B5504C012806D048B140F6F611AFF6E9
:101CC0006400FEF72FFB206840F0020002E020686D
:101CD00020F00200206010BD10B5464C58B101281C
:101CE00005D040F60D21AFF68C00FEF71BFB2068F7
:101CF00040F0010002E0206820F00100206010BDEB
:101D000070B50025044620280BD0102C09D0082CD3
:101D100007D0042C05D040F62921AFF6C000FEF70D
:101D200001FB34480068204200D001252846F5E434
:101D300010B50446FF2805D940F63E21AFF6E40071
:101D4000FEF7F0FA2B48001D046010BD2DE9F041AC
:101D500015460E4604004FF0004707D0BC4205D0A0
:101D600040F65121AFF60C10FEF7DCFABD4205D368
:101D700040F65221AFF61C10FEF7D4FA1D48103081
:101D800006602C43001D04603DE41A4918310860C8
:101D90002BE6184A1C321060101D016025E610B5B4
:101DA0000446B0F5E06F1BD0A4F5E060043817D00E
:101DB000B4F5E16F14D0083812D0B4F5E26F0FD04B
:101DC00008380DD0B4F5E36F0AD0083808D0B4F560
:101DD000E46F05D040F68521AFF68010FEF7A2FA39
:101DE0000148205810BD0000008002409FFFFDEF19
:101DF0000000021000870240F0B5FA4C00254FF0B9
:101E00000477A1605E1E20601DE000BFC5EB451C8D
:101E100000EB05140CEB851C02EB0C1CC4F808C08D
:101E20002760B54204D204F1100CC4F80CC000E0E5
:101E3000E06001EB051CD4F808E0CCF808E0E468A9
:101E40006D1CCCF80C409D42E0D301EB051242F82A
:101E5000101CE5490861F0BD2DE9F0439146E14AC7
:101E600000244FF00047D16044F2F05C5D1E5060EA
:101E70001BE000BF00EB0412C4EB441606EB841811
:101E800009EB08161760C2E901C6AC4203D202F1A1
:101E90001006D66000E0D06001EB0416D2F808808E
:101EA000C6F80880D268641CF2609C42E2D301EB61
:101EB000041242F8101CCC49C860BDE8F083F0B5AC
:101EC000C84B002425461E683668002E24DB9E6819
:101ED00005E0D6F808C0075D0CF80470641C8C425D
:101EE000F7D3C1F30C0019684860086840F030402F
:101EF0000860BD484469640703D504244461002494
:101F000044600C684FF6FF766D1CA70301D4B54200
:101F1000FAD3B64EB54201D10020F0BD24F400340E
:101F20000C60896811601968C968516019680A688D
:101F3000D40208D59868C1681960016809B1996030
:101F400007E0103004E0920205D5016919600069CC
:101F500098600120F0BD0268C2F384021144103180
:101F6000196000689968C0F384000844E9E770B517
:101F70009C4A00230546546818462468002C01DA60
:101F800000206EE426040ED4E6050CD5A6050AD57D
:101F9000C4F30D40001FD46803E0A668F65CEE545D
:101FA0005B1C8342F9D3904B5C69240603D58024E3
:101FB0005C6100249C605468A4680C605468E46808
:101FC0004C6051680C6844F000440C604C68650437
:101FD00009D5D168CB6853600B680BB1D36040E47E
:101FE0001031D1603DE4240401D5D96804E01B68B8
:101FF000C3F3840319441031516032E470B505F025
:1020000087FC794D6C69600605D579481AF05CFD4E
:102010004020FFF774FCE00706D07548783004F0E4
:10202000AAFB0120FFF76BFCE00302D54FF48030E0
:102030006861200402D54FF400406861E00601D5D4
:102040001020686121064FF0000002D5A8608021B1
:102050006961610702D5686004206861BDE870406D
:1020600005F061BC38B500240094FEF7A5FBFFF72E
:10207000AEFB00BFFFF7B1FB0128FBD05D48FEF7C8
:102080005FFE5C48012140F8141B890340F8081BDF
:10209000CA10C0E900424A11C0E903244A04C261DF
:1020A000046344632022846382620A118260CB014C
:1020B0000367CA02C0E9194284670423C467C0F8F1
:1020C000843040F8882F8A0042600A0282604A10F9
:1020D000C26041614748FEF77BFB00900121464802
:1020E000FFF72DFC45490222A1F5BF50FFF722F969
:1020F00043490422A1F16000FFF787FA3C49002020
:102100007031FFF76EF8FEF7AFFE002038BD0020FB
:102110006BE4002069E410B56FF0050005F020FCC9
:1021200000205FE610B56FF0050005F019FC0020F7
:1021300058E610B51046012905D130B12C490622C8
:10214000703105F048FC00204CE64FF0FF3049E6C6
:102150002DE9F04126480E460221783004F093FA2A
:1021600010B14FF0FF300FE6002235461D4C0DE058
:102170006889696807E000BF276811F8013BBF68FC
:10218000BB54401E521C0028F6D12D68002DEFD103
:102190003089C0F30C0120684160016841F0E041E2
:1021A00041F44001016085684FF4006013F0D8FFEE
:1021B000A9890022884205D120688068C17D012953
:1021C00000D182842068016841F000410160064925
:1021D0004B695B0702D504234B614A60C0682060ED
:1021E0000020D1E51000002000900240FFFF040015
:1021F00068280020AC03002041000100881C00205A
:10220000C80400202DE9F041B14D0026686800683F
:10221000002837DB01041AD4C10518D5810516D56D
:10222000C0F30D40001F81B20022022014F04CFCCC
:1022300006000CD068683446876862893946606851
:102240001BF0EAF9608924680744002CF5D169681D
:102250004FF0004008609F484269120603D5802273
:102260004261002282604A68530401D5C86808E0D0
:10227000120401D5C06804E00068C0F3840008447B
:102280001030686030467FE52DE9F84F01214FF0AE
:10229000201002F0DEFE002003F01AF84FF00309D0
:1022A0008DF8029018258DF803504FF0020AADF812
:1022B00000A06946884802F0E0FB0424ADF8004025
:1022C0006946864802F0D9FB8DF803504FF4006B45
:1022D000ADF800B06946824802F0CFFBA702ADF826
:1022E000007069467E4802F0C8FBE002ADF80000CD
:1022F00069467B4802F0C1FBADF80040694676486C
:1023000002F0BBFBA601ADF800606946744802F01C
:10231000B4FB8DF803404FF00808ADF80080694623
:102320006D4802F0AAFB8DF80340ADF800606946E5
:102330006C4802F0A2FBE001ADF800006946694874
:1023400002F09BFB2402ADF800406946654802F0AC
:1023500094FBADF800B06946624802F08EFBADF820
:10236000007069465F4802F088FB0120ADF800006C
:1023700069465A4802F081FBADF80080694657482B
:1023800002F07BFBADF800A06946544802F075FBF3
:10239000ADF800406946524802F06FFB062001F09C
:1023A00083FEADF800608DF802908DF80350694609
:1023B0004A4802F062FBBDE8F88F38B501214FF4BE
:1023C000E03001F08AFD01217D2001F0A4FDFFF73E
:1023D0005BFF3D208DF8000000248DF801408DF852
:1023E000024001208DF80300684603F099FD3E4845
:1023F000802180F8704080F87110E12180F872101F
:102400003A49097880F873103849491C097880F8EE
:1024100074103649891C097880F875103449416276
:10242000344981623449C1623449016334494163AA
:102430003449C0E90E14AFF233218166AFF2EF21C7
:10244000C1660023022230A1783004F0A2F8BDE872
:1024500038402FA124481AF035BB10B50024A0B293
:102460000221FEF79CFD024621462AA005F041FD0F
:10247000641C202CF3DBB5E470B5054601462AA0A8
:1024800005F037FD0024A1B2A8B2FEF788FD024690
:1024900021462AA005F02DFD641C202CF3DB46E428
:1024A00092B289B280B2FEF7C8BD70B50146274D21
:1024B00027A005F01EFD002440F2164604CDA10021
:1024C00028A005F016FD641CB442F7D32FE40000E9
:1024D0001000002000900240001001400008014060
:1024E000000C01400014014068280020EFF7FF1F96
:1024F000652000080F21000813210008172100089B
:10250000252100083321000874785F627566000099
:10251000653000006164647220253032643A202501
:102520003034580A0000000064756D7020706879BE
:1025300020616464722025640A00000072656720CF
:10254000253032643A20253034580A000080024099
:1025500064756D702045414D432072656720256488
:102560000A00000072656720253034583A20253073
:1025700038580A0030B585B0056C0C46684601F045
:102580005DFF60780022082802D8ADF8042005E03D
:1025900010280ED84FF40060ADF804007948616847
:1025A0000068B1EB500F07D3774B984204D8002056
:1025B00021E0082005B030BDB1EB900F01D3082019
:1025C00019E0B1EBD00F01D3102014E0B1EB101FD4
:1025D00001D318200FE0B1EB501F01D320200AE0F7
:1025E000B1EB901F01D3282005E0B1EBD01F01D340
:1025F000302000E03820ADF80C002078800703D5AB
:102600000220ADF8060001E0ADF806202078C007F2
:1026100003D00120ADF8080001E0ADF808202078D3
:10262000400702D5ADF80E2002E08020ADF80E0084
:10263000ADF800204FF48270ADF802004FF4007046
:10264000ADF80A00E86E01F081FD6946E86E01F020
:10265000AAFD0121E86E01F006FF0021E86E02F0FC
:1026600077F80020A6E72DE9F0470C46016C00F151
:102670004406C76B207CD1F86CA0A568C00703D0C6
:10268000B988386802F0C8FB7078082823D8D4E9E4
:1026900000861DE04FF0FF09B8F1000F01D018F8D7
:1026A000019B0221504602F0D1F80028F9D049469A
:1026B000504601F0A0FF0121504602F0C7F8002863
:1026C000F9D0504601F0ABFFC0B20EB106F8010BD5
:1026D0006D1EDFD223E0102821D8D4E900861CE04B
:1026E0004FF0FF09B8F1000F01D038F8029B02212A
:1026F000504602F0ABF80028F9D04946504601F0A8
:102700007AFF0121504602F0A1F80028F9D0504686
:1027100001F085FF0EB126F8020B6D1EE0D2207C81
:10272000800703D5B988386802F022FBA068BDE8AD
:10273000F08770B50C46054601211646084601F0A3
:10274000EAFB1248854205D1E0660121801401F0C0
:10275000E2FB0EE00E48854203D10121E066001441
:1027600005E00C4885420BD1E0660121C01301F061
:10277000F0FB31462046BDE87040074A0BF0C0BC74
:10278000062070BD280000200151250200300140C4
:1027900000380040003C00402000002010B50446F6
:1027A000006C4FF0FF31443004F0A8F800280DD140
:1027B000216C8A6EA24209D0086C04F144010268BF
:1027C00020469047002801D1216C8C6610BD70B561
:1027D00088B0044603F079FC0546FF208DF8180008
:1027E00006A8009005A801900120029004984FF4DB
:1027F0007A7620F00200410861F300000490206C1A
:102800006946006C4268204690479DF81400FF28F6
:102810000BD0304603F079FC0146284600F0EAFE72
:102820000028ECD0022008B070BD0020FBE72DE9A5
:10283000F04F91B00546DDE91A644FF0FF0B8DF8BB
:102840002CB041F040008DF82D00100E8DF82E00B8
:10285000100C8DF82F00100A8DF830008DF8312003
:102860000DF12C0A2BBB00204FF0050901460AF19F
:1028700001075FF000027B5CC0F380184FEAD31CB5
:10288000E04506D080F004004006000E40F0010054
:1028900001E04006000E521C5B06D2B21B0E082A55
:1028A000EAD3491CC9B24945E3DB012101EB4000F1
:1028B000C3B20DA8CDE900A08DF832308DF833B049
:1028C000082002900498D94620F00200410861F3E4
:1028D000000004902846FFF77AFF286C6946006CD8
:1028E00042682846904701274FEA07088DF818905C
:1028F00006A88DE81101049820F00200410861F358
:1029000000000490286C6946006C42682846904795
:102910002078000602D57F1C092FE7D3092F0BD0A2
:10292000012E49D00027022E0AD0641C032E2DD080
:10293000042E30D0072E2ED0012011B0BDE8F08F2C
:1029400003F0C3FB4446814606AE4FF4FA68009795
:10295000CDE90164049820F00200410861F3000011
:102960000490286C6946006C4268284690479DF8A0
:102970001800FF2820D0404603F0C7FB0146484618
:1029800000F038FE0028E2D00220D6E7CDE900743E
:10299000CDF8088003E004200097CDE901400498B9
:1029A00020F00200410861F300000490286C6946A1
:1029B000006C4268284690470020BEE72DE9F047AA
:1029C0008CB0914688460446FE2603F07EFB0746FF
:1029D000FF208DF82C000BA800900AA80190012080
:1029E000029004984FF4487A20F00200410861F305
:1029F000000002250490206C6946006C4268204665
:102A000090479DF82800B04225D105A8002680E80F
:102A10004003099820F00200410861F3000009908A
:102A2000206C05A9006C4268204690476846CDE9B5
:102A300006050998059620F00200410861F30000A0
:102A40000990206C05A9006C426820469047002040
:102A50000CB0BDE8F087504603F057FB01463846FE
:102A600000F0C8FD0028C6D02846F1E72DE9F04166
:102A70008AB090460F4604461D461022FF2105A845
:102A800004F087FF8DF8235005AD00261020009537
:102A9000CDE90160049820F00200410861F30000D4
:102AA0000490206C6946006C426820469047049868
:102AB000CDE9007620F00200410861F30000CDF876
:102AC00008800490206C6946006C4268204690475C
:102AD00009A8CDE9005003200290049820F00200DC
:102AE000410861F300000490206C6946006C426864
:102AF000204690479DF8260000F01F00052803D0CF
:102B000001200AB0BDE8F0812046FFF760FEF8E73B
:102B10002DE9F04304468FB01D4691468846C06CAF
:102B2000FFF73CFE002869D108208DF80100042041
:102B30008DF80000606D01906946E06C0BF010FBB1
:102B4000012702AE012D11D07AD9E06C00F02DFDE5
:102B500094F85000012835D0CDE9007600231A46BC
:102B60003721E06CFFF763FEC0B919E0E06C00F0BC
:102B70001CFDCDE90076626C002302FB08F21821EF
:102B8000E06CFFF754FE48B99DF8080030B9FE2309
:102B90004946626CE06CFFF769FF78B300254FE0AF
:102BA0009DF808000028F9D1CDE9007600232A46D7
:102BB0001721E06CFFF73BFE0028EFD19DF80800DD
:102BC0000028EBD1CDE90076626C002302FB08F20D
:102BD0001921E06CFFF72BFE0028DFD19DF80800DB
:102BE0000028DBD100260BE0626CFC2302FB06917F
:102BF000E06CFFF73BFF10B1354603E020E0761CA8
:102C0000AE42F1D31222FF2109A804F0C2FEFD203A
:102C10008DF8350009A80490002005901220069038
:102C2000089820F00200410861F300000890E06C71
:102C3000016C096C4A6804A99047E06CFFF7C7FD76
:102C4000E06C00F0C5FCE06C006C443003F032FF37
:102C500028460FB0BDE8F0832DE9FF4704461D4626
:102C600091460E46C06CFFF799FD002852D108200E
:102C70008DF8010004208DF80000606D0190694618
:102C8000E06C0BF06DFA4FF0010802AF012D0ED091
:102C900040D9E06C00F089FCCDE90087626C00232C
:102CA00072431221E06CFFF7C2FDB0B917E0E06C8F
:102CB00000F07BFCCDE90087626C00237243112198
:102CC000E06CFFF7B4FD40B99DF8080028B949460B
:102CD000626CE06CFFF772FEE0B100251AE09DF82F
:102CE00008000028F9D1002609E0626CE06C02FBC4
:102CF0000691FFF763FE08B1354602E0761CAE424E
:102D0000F3D30220CDE9000700231A460C21E06C22
:102D1000FFF78DFDE06C00F05BFCE06C006C443074
:102D200003F0C8FE284604B093E62DE9F0430446BC
:102D30008FB01D4690468946C06CFFF72FFD0028D6
:102D400072D108208DF8010004208DF80000606D1C
:102D500001906946E06C0BF003FA012702AE012DE9
:102D60000DD073D9E06C00F020FCCDE90076002393
:102D70001A463721E06CFFF75AFDB0B917E0E06C56
:102D800000F013FCCDE9007600234A461821E06CE0
:102D9000FFF74DFD48B99DF8080030B9FE234146C4
:102DA000626CE06CFFF762FEF0B300254EE09DF828
:102DB00008000028F9D1CDE9007600232A46172122
:102DC000E06CFFF734FD0028EFD19DF808000028E3
:102DD000EBD1CDE9007600234A461921E06CFFF7DC
:102DE00026FD0028E1D19DF808000028DDD100264D
:102DF0000AE0626CFC2302FB0681E06CFFF736FE02
:102E000008B1354602E0761CAE42F2D31222FF2111
:102E100009A804F0BEFDFD208DF8350009A8049036
:102E200000200590122000E010E00690089820F0A5
:102E30000200410861F300000890E06C016C096C2D
:102E40004A6804A99047E06CFFF7C1FCE06C00F011
:102E5000BFFBE06C006C443003F02CFE2846F8E623
:102E60002DE9FF4704461D4690468946C06CFFF792
:102E700095FC98BB08208DF8010004208DF8000017
:102E8000606D01906946E06C0BF06AF9012602AFB3
:102E9000012D0DD03ED9E06C00F087FBCDE9006735
:102EA00000234A461221E06CFFF7C1FCA8B916E0E6
:102EB000E06C00F07AFBCDE9006700234A4611215F
:102EC000E06CFFF7B4FC40B99DF8080028B9414612
:102ED000626CE06CFFF772FD00B100251AE09DF80E
:102EE00008000028F9D1002609E0626CE06C02FBC2
:102EF0000681FFF763FD08B1354602E0761CAE425D
:102F0000F3D30220CDE9000700231A460C21E06C20
:102F1000FFF78DFCE06C00F05BFBE06C006C443074
:102F200003F0C8FD2846FEE62DE9F04F0446C06CCC
:102F3000A5B000284FF0080071D08DF801004FF0C7
:102F40000408F8488DF8008001906946E06C0BF0A9
:102F500007F9E06CFFF722FC070075D1E06C00F088
:102F600037FBFF2264210CA81AF0CDFB07A90CA89F
:102F7000BA464FF0640B81E8010C0B9820F0020078
:102F8000410861F300000B90E06C016C096C4A6829
:102F900007A9904703F099F8814604AD0126E06C3B
:102FA00000F003FBCDE90065002295231146E06C9B
:102FB000FFF73DFC0746E06C00F00AFB1FB99DF8E7
:102FC000100001280AD040F6B83003F09EF8014600
:102FD000484600F00FFB0028E1D0FCE003F075F854
:102FE0004FF448790290E06C00F0DFFA0720CDE959
:102FF000000587234FF4D5720821E06CFFF717FC1A
:103000000746E06C00F0E4FA57B1C82003F07DF801
:103010000146029800F0EEFA0028DED115E07AE2CF
:103020009DF81000400703D5022184F8501017E0E6
:10303000032084F850009DF81400AA28D3D19DF8ED
:10304000130000280BD0CBE0F3E19DF81400AA2870
:10305000C9D194F85000022802D00328F3D050E2DE
:10306000E06C00F0A2FACDE9008500231A463A216F
:10307000E06CFFF7DCFB070077D19DF810004008FB
:103080003FD1E06C00F0A4FA9DF811009DF81210F9
:1030900001EB00209DF8131001EB00209DF81410A7
:1030A00001EB00200004DAD503F00FF8074648468C
:1030B00003F02BF80146384600F09CFA08BBE06CA0
:1030C00000F073FACDE9006500231A463721E06C61
:1030D000FFF7ADFB18B1E06C00F07AFAE7E79DF876
:1030E000100040080DD1CDE9006500231A462921C2
:1030F000E06CFFF79CFB0028EDD19DF81000410823
:1031000034D0E06C00F064FAE06C00F061FAFF2269
:1031100064210CA81AF0F7FA07A90CA881E8010CA1
:103120000B9820F00200410861F3000000270B908B
:10313000E06C016C096C4A6807A990477F1C0A2F54
:10314000F6D302F0C2FF8146E06C00F02EFACDE922
:103150000065002295231146E06CFFF768FB0746E7
:10316000E06C00F035FA3FB10AE0BDE000289ED1E6
:10317000E06C00F02DFAB8E09DF8100001280AD0AC
:1031800040F6B83002F0C1FF0146484600F032FA7E
:103190000028D9D01FE002F098FF8146E06C00F0D3
:1031A00004FACDE9006500231A460121E06CFFF71F
:1031B0003EFB0746E06C00F00BFA17B99DF81000D3
:1031C00058B140F6B83002F0A0FF0146484600F082
:1031D00011FA0028E2D0022794E184F8506088E0D8
:1031E000E06C00F0E2F9CDE9008500231A463A21AF
:1031F000E06CFFF71CFB070076D19DF8100040083B
:1032000003D0E06C00F0E4F97BE1E06C00F0E0F961
:103210009DF811009DF8121001EB00209DF813108D
:1032200001EB00209DF8141001EB00200004EBD509
:1032300002F04BFF0746E06C00F0B7F9484602F099
:1032400064FF0146384600F0D5F90028D9D1CDE910
:103250000065652300223721E06CFFF7E8FA90B99A
:103260009DF810004008CCD1CDE9006577234FF0E0
:1032700080422921E06CFFF7DAFA0028C1D19DF8DD
:103280001000400802D0E06C00F0A2F99DF8100098
:103290000028D0D1E06C00F09BF9E06C00F085F9DB
:1032A000CDE9008500231A463A21E06CFFF7BFFA0A
:1032B00007006FD19DF810004008A2D1E06C00F02B
:1032C00087F99DF811009DF8121001EB00209DF880
:1032D000131001EB00209DF8141001EB00204000BA
:1032E00003D584F8508023E054E094F8500004287B
:1032F0001ED00D4921630D496163E06C00F068F94F
:10330000E06C00F052F9CDE90065912300223B21E9
:10331000E06CFFF78CFA0746E06C00F059F9002FDB
:103320005ED109E0801A0600592C0008112B000814
:10333000B8492163B849DFE79DF8100000284FD154
:10334000E06C00F045F9E06C00F02FF9CDE9006584
:103350004FF4007900234A461021E06CFFF767FA2A
:103360000746E06C00F034F9002F39D19DF81000C9
:10337000B0BBC4F84890C4F84490E06C00F015F974
:10338000CDE9006500231A460921E06CFFF74FFAEA
:10339000070003D0E06C00F01BF9B3E09DF81000CB
:1033A00000288AD1102207A9E06CFFF707FB074627
:1033B000E06C00F00DF9E7BB9DF81C00032394F8C6
:1033C00050C003EA9011954D954A964E4FF6FF7006
:1033D000BCF1010F05D04FEA660C59B301295ED04C
:1033E0008FE002297ED89DF81F1011F0030106D04E
:1033F000012907D0022907D0032907D007E08A490D
:10340000616504E0656502E0626500E066659DF85F
:1034100021109DF8235001F00F029DF8221001F0B9
:10342000030100EA0121294400EA81019DF82400FA
:1034300001E067E003E003EA901008441AE09DF819
:103440001F10322926D05A2926D065659DF82110F3
:103450009DF8235001F00F029DF8221001F00301A6
:1034600000EA0121294400EA81009DF8241003EAC2
:10347000911108449DF825109DF826308907490FC1
:1034800001EBD311401C891C8840616C9040B0FB5B
:10349000F1F01DE06265D9E7C4F854C0D6E79DF8A5
:1034A0001F00322823D05A2823D00B2824D02B28C1
:1034B00024D065659DF823009DF82410800601EB5B
:1034C00090409DF8251001EB0020401C4008800230
:1034D000206408208DF809008DF80880606D039045
:1034E00002A900E00DE0E06C0AF03AFE0AE0626535
:1034F000E0E7C4F854C0DDE76665DBE74B4860658C
:10350000D8E70127E06C00F063F8E06C006C443011
:1035100003F0D0FA384625B0BDE8F08F00207047A0
:103520000020704770B515460E46040005D140F2E4
:1035300065623F493FA004F078FD102E06D13DB1F1
:10354000606C6860A06CA860206C2860002070BD72
:103550004FF0FF3070BD70B50546084602F0E4FD3F
:1035600004001FD058220021364804F012FA3548D2
:103570000121354AC464017500214164016442623D
:103580008164324A8262324AC0E90B21314AC0E981
:103590000D12C163C16101622946BDE870400F226E
:1035A00002F0E8BD6FF0050070BD00B585B00021E8
:1035B000009101910291049921F0020141F0010171
:1035C0000491016C096C4A686946904705B000BDDA
:1035D00000B585B00021009101910291049921F07C
:1035E000010141F002010491016C096C4A686946CD
:1035F0009047EBE770B50546441802F066FD0021E0
:10360000AC4201D2A84202D2A04200D30121084616
:1036100070BD0000612E00082B2D000840420F00F5
:103620008096980000E1F505A086010000C2EB0B32
:103630006CDC010864657620213D2052545F4E55B4
:103640004C4C000000290020292F00081D350008DF
:1036500021350008253500080CB50021644801918A
:103660000091026842F4803202604FF4A063026865
:1036700002F400320092019A521C0192009A12B98F
:10368000019A9A42F3D10268920342D50121009136
:1036900058490A6842F010020A600A6822F00302E0
:1036A0000A600A6842F002020A60416841604168AB
:1036B0004160416841F480614160C16A4E4A1140F5
:1036C000C162C16A4D4A1143C162016841F0806123
:1036D000016001680901FCD5416821F47C11416059
:1036E000416841F4E8114160016841F08071016076
:1036F00001688901FCD5416821F0030141604168FE
:1037000041F0020141604168C1F381010229FAD10F
:103710000CBD00910CBD364810B5016841F00101A7
:1037200001604168364A114041600168354A1140E4
:103730000160016821F480210160416821F4FE01EB
:103740004160016821F0A05101604FF47F01816068
:103750000021C162FFF780FF2B494FF00060086035
:1037600010BD70B522484168284B294A11F00C0160
:1037700004D0284D042903D0082903D0136029E080
:10378000156027E0416843680F2404EA914103F47F
:1037900080330D2901D0891C00E00621BBB1C36A2A
:1037A00013F4803FC36A03F00F0303F101031BD03E
:1037B000C46AC66AC4F30314641CB5FBF4F4C6F30C
:1037C0000326B61C7443B4FBF3F34B43D6E7124B0A
:1037D0005943116040680E49C0F30310091D085C8D
:1037E0001168C140116070BDB5FBF3F3EDE7000057
:1037F000001002400020024000F0FEFF44060100DD
:103800000000FFF0FFFFF6FE08ED00E000127A0076
:103810002800002040787D0100093D00F84801683B
:1038200041F0010101604168F64A114041600168C0
:10383000F54A11400160016821F48021016041686E
:1038400021F4FE014160016821F0A05101604FF4B4
:103850007F0181600021C162704770B504004FF4A0
:1038600080354FF4802608D0AC4206D0B44204D054
:1038700040F21111E5A0FCF755FDE149086820F47C
:1038800080300860086820F480200860AC4206D0D0
:10389000B44203D1086840F4A020086070BD0868F5
:1038A00040F48030F9E770B50025044621281CD08B
:1038B000312C1AD0392C18D0412C16D03B2C14D0D6
:1038C0003D2C12D0612C10D07A2C0ED07B2C0CD039
:1038D0007C2C0AD07D2C08D07E2C06D07F2C04D0E6
:1038E00040F23451C9A0FCF71DFD6109C44801290B
:1038F0000BD002290BD0406A04F01F0101228A403C
:10390000024200D00125284670BD0068F4E7006A35
:10391000F2E738B500204FF4A06400903120FFF7A3
:10392000C2FF0099491C0091A14201D00028F5D0A6
:103930003120FFF7B8FF002800D0012038BD10B5B6
:1039400004461F2804D94FF4A971B0A0FCF7EAFC83
:10395000AB48016821F0F80141EAC401016010BDE3
:1039600010B5040006D0012C04D040F26511A7A0C8
:10397000FCF7D8FCB448046010BD70B50C460500D7
:1039800007D0B5F5803F04D040F27F119FA0FCF72F
:10399000C9FCB4F5002F16D0B4F5402F13D0B4F500
:1039A000801F10D0B4F5A01F0DD0B4F5C01F0AD0F1
:1039B000B4F5E01F07D0B4F5501F04D04FF4C07128
:1039C00092A0FCF7AFFC8E484168254321F47411A6
:1039D0000D43456070BD10B5040006D0012C04D025
:1039E0004FF4CA7189A0FCF79DFC9748046610BD8E
:1039F00070B50C46050007D0B5F5803F04D040F205
:103A0000AF1182A0FCF78EFC14B3012C20D0022C45
:103A10001ED0032C1CD0042C1AD0052C18D0062C38
:103A200016D0072C14D0082C12D0092C10D00A2C38
:103A30000ED00B2C0CD00C2C0AD00D2C08D00E2C38
:103A400006D00F2C04D04FF4D87170A0FCF76AFC9C
:103A50006B49C86A7D4A254310400543CD6270BD5D
:103A600010B5040022D0102C20D0202C1ED0302CD9
:103A70001CD0402C1AD0502C18D0602C16D0702C92
:103A800014D0802C12D0902C10D0A02C0ED0B02CA2
:103A90000CD0C02C0AD0D02C08D0E02C06D0F02CB2
:103AA00004D040F2CB1159A0FCF73CFC5449C86A41
:103AB00020F0F0002043C86210BD10B50446B0F5F8
:103AC000C06F1CD0B4F5E06F19D0B4F5006F16D0FC
:103AD000B4F5106F13D0B4F5206F10D0B4F5306F7B
:103AE0000DD0B4F5406F0AD0B4F5606F07D0B4F5CF
:103AF000706F04D04FF4F27144A0FCF713FC4049FE
:103B0000C86A20F470602043C86210BD10B504007C
:103B100006D0012C04D04FF4FE713CA0FCF702FC4F
:103B20004948846610BD10B50446B0F5C04F1CD09E
:103B3000B4F5E04F19D0B4F5004F16D0B4F5104FDE
:103B400013D0B4F5204F10D0B4F5304F0DD0B4F5EC
:103B5000404F0AD0B4F5604F07D0B4F5704F04D091
:103B60004FF4047129A0FCF7DDFB2549C86A20F455
:103B700070402043C86210BD10B5040006D0012C6F
:103B800004D040F2262121A0FCF7CCFB2E4804678C
:103B900010BD10B5040008D0012C06D0022C04D0B2
:103BA0004FF40E7119A0FCF7BDFB1549486820F0D1
:103BB00003002043486010BD1148406800F00C002D
:103BC000704710B5040014D0802C12D0902C10D067
:103BD000A02C0ED0B02C0CD0C02C0AD0D02C08D0E9
:103BE000E02C06D0F02C04D04FF4197107A0FCF79C
:103BF00099FB0349486820F0F0002043486010BD5D
:103C0000001002400000FFF0FFFFF6FE4C696272F8
:103C100061726965735C53544D3332463130785F5D
:103C20005374645065726970685F44726976657236
:103C30005C7372635C73746D3332663130785F72BB
:103C400063632E630000000000004242F0FFFEFFAD
:103C500010B5040011D0B4F5806F0ED0B4F5A06F8C
:103C60000BD0B4F5C06F08D0B4F5E06F05D040F2CA
:103C70007E21AFF26800FCF755FBF949486820F453
:103C8000E06020434860BAE710B5040011D0B4F5F5
:103C9000806F0ED0B4F5A06F0BD0B4F5C06F08D014
:103CA000B4F5E06F05D04FF42671AFF2A000FCF739
:103CB00039FBEB48416821F4605141EAC40141609D
:103CC0009DE770B505460E46000600D42DB940F2BA
:103CD000BF21AFF2C800FCF725FBE14C56B1012E25
:103CE00005D04FF43071AFF2DC00FCF71BFB607ABB
:103CF000284301E0607AA843607270BD10B50400EB
:103D000007D0012C05D040F2ED21AFF20010FCF7F6
:103D100009FBD448C0F8D84071E710B504000ED0B4
:103D2000B4F5804F0BD0B4F5004F08D0B4F5404F38
:103D300005D040F20231AFF22C10FCF7F3FAC8497B
:103D4000486820F440402043486058E710B504001C
:103D500007D0012C05D040F21B31AFF25010FCF718
:103D6000E1FAC14804604AE710B5040007D0012C0D
:103D700005D040F22E31AFF26C10FCF7D3FABA48FE
:103D8000001D04603BE710B5040009D0012C07D0EA
:103D9000042C05D04FF45071AFF29010FCF7C2FA2A
:103DA000AF48002180F8201080F82010012C06D0A8
:103DB000042C03D15FF0050180F820101FE70121DA
:103DC000FAE710B5040007D0012C05D040F26131AC
:103DD000AFF2C810FCF7A6FAA44804600FE710B5CC
:103DE0000446B0F5807F0BD0B4F5007F08D0B4F561
:103DF000407F05D040F27231AFF2F010FCF792FA3A
:103E00009748016A21430162F9E610B5040007D022
:103E1000012C05D04FF46071AFF21020FCF782FA4C
:103E2000924844380460EAE6F0B58D4A5168904BF8
:103E300011F00C014FF00F0504D08E4C042903D073
:103E4000082903D0036028E0046026E05168536825
:103E500005EA914103F480330D2901D0891C00E06B
:103E60000621BBB1D36A13F4803FD36A03F00F037A
:103E700003F101030AD0D66AD76AC6F30316761C8B
:103E8000B4FBF6F4C7F30327BF1C7C43B4FBF3F386
:103E90004B43D7E7784B594301605168774C05EAAB
:103EA0001111635C0168D94041605368072505EA38
:103EB0001323E35C21FA03F38360536805EAD323F9
:103EC000E35CD940C1605268032303EA9232231FA6
:103ED0009A5CB1FBF2F10161F0BD70B5044668482F
:103EE0000E46044200D12CB940F22B41AFF2E4203F
:103EF000FCF718FA5A4D56B1012E05D040F22C416C
:103F0000AFF2F820FCF70EFA6869204301E0686917
:103F1000A043686170BD70B504465A480E4604421D
:103F200000D12CB940F24A41AFF22030FCF7FAF947
:103F30004B4D56B1012E05D040F24B41AFF234301B
:103F4000FCF7F0F9A869204301E0A869A043A86143
:103F500070BD70B504464C480E46044200D12CB9E1
:103F600040F26941AFF25C30FCF7DCF93C4D56B1F0
:103F7000012E05D040F26A41AFF27030FCF7D2F961
:103F8000E869204301E0E869A043E86170BD70B5CD
:103F900005460E4630F4A04000D12DB940F28441D0
:103FA000AFF29830FCF7BEF92D4C56B1012E05D07A
:103FB00040F28541AFF2AC30FCF7B4F9A06A284377
:103FC00001E0A06AA843A06270BD70B504462D4808
:103FD0000E46044200D12CB940F2A441AFF2D430D5
:103FE000FCF7A0F91E4D56B1012E05D040F2A541B7
:103FF000AFF2E830FCF796F9E868204301E0E868A2
:10400000A043E86070BD70B504461F480E460442E8
:1040100000D12CB940F2C341AFF21040FCF782F955
:104020000F4D56B1012E05D040F2C441AFF22440ED
:10403000FCF778F92869204301E02869A04328614A
:1040400070BD10B5040007D0012C05D04FF49B6162
:10405000AFF24840FCF766F9044840380460CEE50A
:104060000010024000004242C40542428004424225
:1040700000127A0040787D0100093D0040000020D8
:10408000A82FFEFF0200C0FF0036018110B504001A
:1040900007D0012C05D040F2E541AFF29040FCF78B
:1040A00041F92848C464AAE510B5040015D0052CD0
:1040B00013D0042C11D0062C0FD0072C0DD0082CB7
:1040C0000BD0092C09D00A2C07D00B2C05D040F2BC
:1040D0000551AFF2C840FCF725F91B48C4718EE5C5
:1040E0001948416A41F080714162704770B50025FE
:1040F0000446012813D0022C11D0042C0FD0082C18
:104100000DD0102C0BD0802C09D0202C07D0402CA7
:1041100005D040F27E51AFF20C50FCF703F90A488B
:104120008068204200D00125284670BD10B50400EB
:1041300005D140F2AB51AFF22C50FCF7F3F8024836
:1041400084725CE5000042420010024070B50446F3
:10415000FC4884420ED0FC4DFC4EAC4205D0B4422B
:1041600015D07A21FAA0FCF7DDF8AC420DD101217F
:104170008C030EE001210C032046FFF726FF2046AA
:10418000BDE870400021FFF720BFB4420AD10121F1
:10419000CC032046FFF737FF2046BDE870400021E2
:1041A000FFF731BF70BD70B50546E6480C46854245
:1041B00009D0E548854206D0E448854203D0A321D2
:1041C000E3A0FCF7AFF8208860B1B0F5806F09D0AC
:1041D000B0F5004F06D0B0F5404F03D0A621DCA0CB
:1041E000FCF7A0F86088B0F5827F04D018B1A72151
:1041F000D7A0FCF797F8A088B0F5006F04D018B1ED
:10420000A821D3A0FCF78EF8E08828B1022803D0BB
:10421000A921CFA0FCF786F8208928B1012803D076
:10422000AA21CBA0FCF77EF86089B0F5007F04D00E
:1042300018B1AB21C6A0FCF775F8A08988B1082891
:104240000FD010280DD018280BD0202809D02828EE
:1042500007D0302805D0382803D0AC21BCA0FCF70B
:1042600061F8E08928B1802803D0AD21B8A0FCF71F
:1042700059F8208A18B9AE21B5A0FCF753F8288860
:10428000628800F441512088E3881043A2881A43D1
:1042900010432289104362891043A2891043E289A6
:1042A000104308432880A88B20F40060A883208A4C
:1042B000288270BD2DE9F04FDFF88CA2022600277E
:1042C00085B00C4605464FF00108504506D09F4882
:1042D000854203D0E3219EA0FCF724F820884FF408
:1042E000007958B1B0F5807F08D0484506D0B0F5C8
:1042F000407F03D0E42196A0FCF714F8608858B101
:10430000102809D0202807D0302805D0B02803D0A5
:10431000E5218FA0FCF706F8A08848B1012807D056
:10432000032805D0052803D0E62189A0FBF7FAFF72
:10433000E088CB46584504D018B1E72184A0FBF7AC
:10434000F1FFA068914AA0F5FA51914205D90228DF
:1043500003D0E8217EA0FBF7E5FFA08928B108285B
:1043600003D0E9217AA0FBF7DDFFA88B4FF24001D3
:104370000840A88302202884B5F81C90A068022871
:1043800049D0A08808B14FF00208554502D14FF43A
:10439000003001E04FF480207D49CA6A024214D007
:1043A000C86AC0F30330821F092A01D2801C02E0D0
:1043B0000F2800D11420C96A764AC1F30311491CA1
:1043C000B2FBF1F14143480003E06846FFF72CFDE2
:1043D0000098E188594501D1000A03E04FEA4811ED
:1043E000B0FBF1F000EB8000A1684000B0FBF1F001
:1043F000401D80B20A21B0FBF1F101F00100091A61
:10440000C1F34F064FF6FF7101EA0027B01EFE28E8
:1044100001D302260027E0883E43304328842088C9
:104420006188A2890843A1881143084340EA090032
:1044300040F40060A88305B0BDE8F08F0021018042
:1044400041808180C180018141818181C1810721B9
:10445000018270470021018041808180C180022259
:1044600082608181704770B5044636480D468442AB
:104470000AD03548844207D03448844204D04FF4EF
:10448000D77133A0FBF74EFF55B1012D04D040F298
:10449000AF112FA0FBF746FF208840F0400002E05C
:1044A000208820F04000208070BD70B5044626486A
:1044B0000D46844207D02548844204D04FF4E3716E
:1044C00023A0FBF72FFF55B1012D04D040F2C711F7
:1044D0001FA0FBF727FFA08B40F4806002E0A08BB9
:1044E00020F48060A08370BD70B504461548164660
:1044F0000D4684420AD01448844207D013488442AF
:1045000004D04FF4F37112A0FBF70CFF36B1012E6B
:1045100004D040F2E7110EA0FBF704FF712D08D084
:10452000602D06D0502D04D04FF4F47108A0FBF795
:10453000F9FE28090121814088B2A1880EB101430A
:104540002BE029E00030014000380040003C0040F2
:104550004C69627261726965735C53544D333246C3
:104560003130785F5374645065726970685F44726B
:10457000697665725C7372635C73746D3332663135
:1045800030785F7370692E6300000000C0CE0200B7
:104590000010024040787D018143A18070BD70B55C
:1045A0000446FC4816460D4684420BD0FA48844225
:1045B00008D0FA48844205D04FF40371AFF270007E
:1045C000FBF7B0FE3EB1012E05D040F20D21AFF257
:1045D0008000FBF7A7FEA80800D12DB940F20E21FC
:1045E000AFF29400FBF79EFEA0880EB1284300E0D6
:1045F000A843A08070BD70B50446E6480D468442CD
:104600000BD0E548844208D0E448844205D040F20B
:104610002621AFF2C400FBF785FEA58170BD10B561
:104620000446DC4884420BD0DB48844208D0DB4897
:10463000844205D040F23621AFF2EC00FBF772FE67
:10464000A08910BD70B50446D2480D4684420BD0F7
:10465000D148844208D0D148844205D04FF4127129
:10466000AFF21410FBF75EFE4FF6FF60B5F5807FEA
:1046700007D0854209D040F24921AFF22C10FBF758
:1046800051FE208840F4807002E0208820F4807081
:10469000208070BD70B50446BE480D4684420BD0E4
:1046A000BD48844208D0BD48844205D04FF41871FB
:1046B000AFF26410FBF736FE5DB1012D05D040F27C
:1046C0006121AFF27410FBF72DFEA08840F00400CA
:1046D00002E0A08820F00400A08070BD70B5044600
:1046E000AC480D4684420BD0AB48844208D0AB485E
:1046F000844205D040F27A21AFF2AC10FBF712FEF3
:10470000B5F5006F06D02DB140F27B21AFF2C0109D
:10471000FBF708FE208820F40060208020882843D2
:10472000208070BD10B504469A4884420BD09A4848
:10473000844208D09948844205D040F28A21AFF2E1
:10474000F010FBF7EFFD208840F48050208010BD72
:1047500070B504468F480D4684420BD08E48844283
:1047600008D08E48844205D040F29A21AFF2202032
:10477000FBF7D8FD5DB1012D05D040F29B21AFF2D2
:104780003020FBF7CFFD208840F4005002E0208865
:1047900020F40050208070BD70B504467D480D4661
:1047A00084420BD07C48844208D07C48844205D0A7
:1047B00040F2B521AFF26820FBF7B4FD3DB1012D09
:1047C00007D040F2B621AFF27820FBF7ABFD208B8B
:1047D00070BDA08A70BD10B504466E4884420BD0EF
:1047E0006D48844208D06D48844205D040F2CD2106
:1047F000AFF2A420FBF796FD208A10BD70B50446E9
:1048000064480D4684420BD06348844208D0634814
:10481000844205D040F2DF21AFF2CC20FBF782FDCD
:10482000A5F53F40FF3808D0B5F5804F09D04FF4CB
:104830003871AFF2E420FBF775FD208820F480404A
:1048400002E0208840F48040208070BD70B50546AD
:10485000504800260C4685420BD04F48854208D070
:104860004E48854205D040F20231AFF21C30FBF7D2
:1048700059FD802C13D0402C11D0202C0FD0102C9F
:104880000DD0082C0BD0042C09D0022C07D0012C01
:1048900005D040F20331AFF24830FBF743FD2889E1
:1048A000204200D00126304670BD70B5044639481C
:1048B0000D4684420BD03848844208D037488442A1
:1048C00005D040F22731AFF27830FBF72BFD102DE9
:1048D00005D04FF44A71AFF28830FBF723FDE8436F
:1048E000208170BD70B505462A4800260C468542D9
:1048F0000BD02948854208D02848854205D040F28F
:104900004331AFF2B430FBF70DFD602C0FD0712CAA
:104910000DD0532C0BD0542C09D0552C07D0562C2D
:1049200005D04FF45171AFF2D830FBF7FBFC04F027
:104930000F01012000FA01F122099040AA8889B2F2
:1049400080B202402889084201D002B101263046D7
:1049500070BD70B504460F480D4684420BD00E481A
:10496000844208D00D48844205D040F27731AFF23E
:104970002040FBF7D7FC542D05D04FF45E71AFF209
:104980003040FBF7CFFC05F00F0101208840C04309
:10499000208170BD0030014000380040003C0040E4
:1049A0002DE9F0470446FE48844221D0FD4FFE4DDC
:1049B000FE4EDFF8FC83DFF8FC93DFF8FCA3BC427B
:1049C0000DD0AC420BD0B44209D0444507D04C4581
:1049D00005D0544539D06F21F8A0FBF7A3FCBC42A9
:1049E0000DD101210820FFF7F0FA0021082033E063
:1049F00001210420FFF7E9FA002104202CE0AC4259
:104A000006D101211020FFF7E0FA0021102023E059
:104A1000B44206D101212020FFF7D7FA002120203F
:104A20001AE0444506D101214020FFF7CEFA0021CB
:104A3000402011E04C4506D101218020FFF7C5FA46
:104A40000021802008E054450AD101210C022046B3
:104A5000FFF7BBFA00212046BDE8F047FFF7B5BAE3
:104A6000BDE8F08710B501210846FFF7AEFA002136
:104A7000BDE810400120FFF7A8BA2DE9F041054636
:104A8000C74800270E46854215D0C648854212D039
:104A9000C54885420FD0C54885420CD0C4488542E0
:104AA00009D0C448854206D0C348854203D0B2210C
:104AB000C2A0FBF737FCF07888B104280FD0282873
:104AC0000DD048280BD0142809D0102807D01C2856
:104AD00005D0182803D0B321B8A0FBF723FC3088F9
:104AE00018B9B421B5A0FBF71DFCF07800F00F0455
:104AF000C0060CD5B078012807D0022805D00328BD
:104B000003D0BB21ADA0FBF70DFCB0780443307897
:104B10004FF00F0E10F0FF0F4FF001001CD029686E
:104B2000338800FA07F21340934211D14FEA870C01
:104B30000EFA0CF321EA030304FA0CF11943F3789B
:104B4000282B02D0482B02D002E06A6100E02A61E3
:104B50007F1C082FE4D329603188FF291ED969689A
:104B60005FF0000303F10802378800FA02F21740F1
:104B700097420FD14FEA830C0EFA0CF7B94304FAAF
:104B80000CF73943F778282F00D16A61F778482F5E
:104B900000D12A615B1C082BE4D36960BDE8F08179
:104BA0004FF6FF710180022181700421C1707047AE
:104BB00070B505467A4800260C46854216D07948DD
:104BC000854213D07848854210D0784885420DD070
:104BD000774885420AD07748854207D07648854293
:104BE00004D04FF48F7175A0FBF79CFB012C2AD0E9
:104BF000022C28D0042C26D0082C24D0102C22D013
:104C0000202C20D0402C1ED0802C1CD0B4F5807FCE
:104C100019D0B4F5007F16D0B4F5806F13D0B4F579
:104C2000006F10D0B4F5805F0DD0B4F5005F0AD0EE
:104C3000B4F5804F07D0B4F5004F04D040F21F11F7
:104C40005EA0FBF76FFBA868204200D0012630462B
:104C500070BD10B504465248844216D05148844273
:104C600013D05148844210D0504884420DD050484F
:104C700084420AD04F48844207D04F48844204D02F
:104C80004FF49A714DA0FBF74DFBA06880B210BDA8
:104C900070B50546424800260C46854216D041486C
:104CA000854213D04048854210D0404885420DD0FF
:104CB0003F4885420AD03F48854207D03E4885425A
:104CC00004D04FF4A2713DA0FBF72CFB012C2AD09D
:104CD000022C28D0042C26D0082C24D0102C22D032
:104CE000202C20D0402C1ED0802C1CD0B4F5807FEE
:104CF00019D0B4F5007F16D0B4F5806F13D0B4F599
:104D0000006F10D0B4F5805F0DD0B4F5005F0AD00D
:104D1000B4F5804F07D0B4F5004F04D040F24511F0
:104D200026A0FBF7FFFAE868204200D001263046B3
:104D300070BD10B504461A48844216D01948844202
:104D400013D01948844210D0184884420DD0184816
:104D500084420AD01748844207D01748844204D0BE
:104D60004FF4AD7115A0FBF7DDFAE06880B210BD1D
:104D700070B504460A480D46844244D0094884422E
:104D800041D0094884423ED0084884423BD008487C
:104D9000844238D00748844235D0074884422BE00B
:104DA00000080140000C01400010014000140140C7
:104DB00000180140001C0140002001404C69627253
:104DC00061726965735C53544D3332463130785F9C
:104DD0005374645065726970685F44726976657275
:104DE0005C7372635C73746D3332663130785F6705
:104DF00070696F2E6300000005D040F26911AFF2B8
:104E00004400FBF78FFA2DB94FF4B571AFF254009F
:104E1000FBF788FA256170BD70B50446FE480D4663
:104E2000844217D0FD48844214D0FD48844211D0FA
:104E3000FC4884420ED0FC4884420BD0FB4884429C
:104E400008D0FB48844205D040F27911AFF29400BB
:104E5000FBF768FA2DB94FF4BD71AFF2A000FBF774
:104E600061FA656170BD70B50546EB4816460C46A3
:104E7000854217D0E948854214D0E948854211D0CF
:104E8000E84885420ED0E84885420BD0E748854285
:104E900008D0E748854205D040F28D11AFF2E4001A
:104EA000FBF740FA012C2BD0022C29D0042C27D060
:104EB000082C25D0102C23D0202C21D0402C1FD002
:104EC000802C1DD0B4F5807F1AD0B4F5007F17D0A8
:104ED000B4F5806F14D0B4F5006F11D0B4F5805FD5
:104EE0000ED0B4F5005F0BD0B4F5804F08D0B4F508
:104EF000004F05D04FF4C771AFF24010FBF712FA24
:104F00004EB1012E05D040F28F11AFF25010FBF7D9
:104F100009FA2C6170BD6C6170BD70B50446BE4865
:104F20000D46844217D0BD48844214D0BC48844208
:104F300011D0BC4884420ED0BB4884420BD0BB4841
:104F4000844208D0BA48844205D04FF4D271AFF2FF
:104F50009410FBF7E7F9E56070BD70B50446AE4804
:104F60000D46844217D0AD48844214D0AC488442E8
:104F700011D0AC4884420ED0AB4884420BD0AB4831
:104F8000844208D0AA48844205D040F2B511AFF25D
:104F9000D410FBF7C7F92DB94FF4DB71AFF2E41071
:104FA000FBF7C0F945F48030A061A561A061A0695C
:104FB000A06970BD70B50C4605000DD0012D0BD059
:104FC000022D09D0032D07D0042D05D04FF4E9712F
:104FD000AFF21820FBF7A6F91CB3012C21D0022C4C
:104FE0001FD0032C1DD0042C1BD0052C19D0062C4F
:104FF00017D0072C15D0082C13D0092C11D00A2C4F
:105000000FD00B2C0DD00C2C0BD00D2C09D00E2C4E
:1050100007D00F2C05D040F2D311AFF26020FBF780
:1050200081F9844908684FF68072104040EA051003
:105030002043086070BD10B5040007D0012C05D0D6
:105040004FF4F371AFF28C20FBF76CF97A48C4612E
:1050500010BD2DE9F0410D46044601287ED0022CFA
:105060007CD0042C7AD0082C78D0A4F5A01010386D
:105070007ED020387CD0A4F5B010403878D080386D
:1050800076D06E48844273D06D48844270D06D48AB
:1050900084426DD06C4884426AD06C48844267D0A8
:1050A000B4F5805F64D0B4F5EA1F61D0B4F5EB1FAE
:1050B0005ED0B4F5004F5BD06FF40010C44257D0FF
:1050C000A4F50010801E53D0801E51D0001F4FD079
:1050D00008384DD0B4F1201F4AD0303848D05C4851
:1050E000844245D05B48844242D05B4884423FD0F2
:1050F0005A4884423CD05A48844239D0B4F5011F02
:1051000036D06FF00040C44232D0C01C84422FD051
:10511000801C84422CD0001D844229D051488442F6
:1051200026D050481030844222D04E48303084423D
:105130001ED04C48703084421AD04A48F030844225
:1051400016D04948844213D04848844210D0484879
:1051500084420DD0474884420AD000E008E0464827
:10516000844205D040F22A21AFF2B030FBF7DAF8E2
:105170003DB1012D05D040F22B21AFF2C030FBF73D
:10518000D1F82C49002C01DACA6900E04A68600DA8
:105190000001A3B2C4F301578340C4F30346032FB5
:1051A00005D0E0020AD50320B040824307E022F098
:1051B00070604A6822F070624A6002E09A4342F0EE
:1051C000706005B11843002C01DAC861E6E448605C
:1051D000E4E470B50C46050011D0012D0FD0022D6E
:1051E0000DD0032D0BD0042D09D0052D07D0062D91
:1051F00005D040F26521AFF23C40FBF793F8ECB3E9
:10520000012C55D0022C53D0032C51D0042C4FD05C
:10521000052C4DD0062C32E000080140000C014066
:10522000001001400014014000180140001C014022
:105230000020014000000140000020420001180051
:10524000000218000003180000081A00000C1A00E1
:105250000001300000023000000430000011200086
:105260000020200010000080000200800004008068
:1052700000080080001000800020008018E017D097
:10528000072C15D0082C13D0092C11D00A2C0FD0C4
:105290000B2C0DD00C2C0BD00D2C09D00E2C07D0C4
:1052A0000F2C05D040F26621AFF2F040FBF73AF840
:1052B000A007020F0E4824F0030318440F2183684F
:1052C00091408B438360816895402943816070BD24
:1052D00010B5040007D0012C05D04FF41E71AFF2B9
:1052E0002450FBF71FF80348C0F8DC4010BD000055
:1052F00000000140000020422DE9F0410446FE4834
:10530000844215D0FD4FFE4DFE4EDFF8FC83BC42BB
:1053100009D0AC4207D0B44205D044451FD0852106
:10532000FAA0FAF7FFFFBC420DD101214C0418E0AE
:1053300001218C032046FEF748FE2046BDE8F041DF
:105340000021FEF742BEAC4202D101218C0408E0EC
:10535000B44202D10121CC0403E044450AD1012129
:105360000C052046FEF74FFE2046BDE8F041002127
:10537000FEF749BEBDE8F0812DE9F043DE4EDF4F78
:10538000DFF87C8385B00D460446B0420DD0BC42A8
:105390000BD0444509D0DB48844206D0DA48844229
:1053A00003D0B821D9A0FAF7BDFF2868E649401E0E
:1053B000884203D3B921D5A0FAF7B4FFA8884FF4E7
:1053C000805928B1484503D0BA21D0A0FAF7AAFFE6
:1053D000E88858B1484509D0B0F5005F06D0B0F56F
:1053E000405F03D0BB21C9A0FAF79CFF288948B1D0
:1053F000B0F5806F06D0B0F5C06F03D0BC21C3A05C
:10540000FAF790FF688930F00C0100D118B9BD217E
:10541000BEA0FAF787FFA889C0B1B0F5807F0BD096
:10542000B0F5007F08D0B0F5407F05D0BE21B7A011
:10543000FAF778FFA88948B1B44207D0BC4205D03A
:10544000444503D0C221B1A0FAF76CFF208A4CF684
:10545000FF710840E98801432182A1894EF6F310CB
:105460000140A8882A8910436A890A431043A08111
:10547000A08A4FF6FF410840A9890143A1826846EE
:10548000FEF7D2FCB44201D1039800E00298A18952
:10549000090400EBC00101EB0010296801D54900A7
:1054A00000E08900B0FBF1F06422B0FBF2F10901E9
:1054B0000B096FF018056B4300EB8300A3891D04F3
:1054C0004FF0320306D503EBC000B0FBF2F000F062
:1054D000070005E003EB0010B0FBF2F000F00F0056
:1054E0000843208105B0BDE8F0834FF416510160F8
:1054F00000218180C18001810C224281818170471D
:1055000070B505467C480C4685420AD07B488542EA
:1055100007D07B48854204D04FF499717BA0FAF7FD
:1055200001FF208838B1B0F5006F04D040F233118C
:1055300076A0FAF7F7FE608838B1B0F5806F04D036
:105540004FF49A7171A0FAF7EDFEA08838B1B0F56A
:10555000007F04D040F235116CA0FAF7E3FEE0883A
:1055600038B1B0F5807F04D04FF49B7167A0FAF793
:10557000D9FE298A4FF2FF00014020886288E38823
:105580001043A2881A4310430843288270BD0021AB
:10559000018041808180C180704770B504465648C3
:1055A0000D46844210D0554884420DD05448844260
:1055B0000AD05448844207D05348844204D04FF460
:1055C000B17152A0FAF7AEFE55B1012D04D040F2F0
:1055D00063114EA0FAF7A6FEA08940F4005002E045
:1055E000A08920F40050A08170BD2DE9F047DFF8BC
:1055F0000881DFF80891DFF808A116460D46044639
:1056000040450ED04C450CD054450AD03D4884420C
:1056100007D03D48844204D040F289113BA0FAF7FC
:1056200081FE40F66A17282D1CD0A5F5E0602738CA
:1056300018D0A5F5C060263814D0A5F5A06025388F
:1056400010D0A5F5806024380CD0A5F50060463850
:1056500008D0BD4206D0602D04D04FF4C5712BA0F8
:10566000FAF760FE36B1012E04D040F28B1127A06C
:10567000FAF758FEBD420AD1444508D04C4506D041
:10568000544504D040F28F1120A0FAF74BFE05F0EC
:105690001F020120C5F342119040012906D00229C2
:1056A00006D0143421682EB1014304E00C34F9E72C
:1056B0001034F7E781432160BDE8F08770B50446F8
:1056C0000D4816460D46844210D00C4884420DD039
:1056D0000B4884420AD00B48844207D00A488442CF
:1056E00004D040F2C31109A0FAF71CFE35F0C00047
:1056F00000D105B92AE02FE0003801400044004005
:1057000000480040004C0040005000404C6962726C
:1057100061726965735C53544D3332463130785F42
:105720005374645065726970685F4472697665721B
:105730005C7372635C73746D3332663130785F759D
:10574000736172742E63000020AA44004FF4E2716A
:10575000AFF24800FAF7E6FD56B1012E05D040F24F
:10576000C511AFF25800FAF7DDFDA08A284301E029
:10577000A08AA843A08270BD70B50446FC480D46BF
:10578000844211D0FB4884420ED0FB4884420BD0A7
:10579000FA48844208D0FA48844205D040F2DF112A
:1057A000AFF29800FAF7BEFD0F2D05D94FF4F07156
:1057B000AFF2A800FAF7B6FD208A20F00F00208291
:1057C000208A2843208270BD70B50446E8480D4603
:1057D000844211D0E74884420ED0E74884420BD07F
:1057E000E648844208D0E648844205D04FF4FB7175
:1057F000AFF2E800FAF796FD45B1B5F5006F05D0B8
:1058000040F2F711AFF2FC00FAF78CFDA08920F40A
:105810000060A081A0892843A08170BD70B50446B6
:10582000D3480D46844211D0D24884420ED0D2488B
:1058300084420BD0D148844208D0D148844205D05C
:1058400040F20921AFF23C10FAF76CFD5DB1012D79
:1058500005D040F20A21AFF24C10FAF763FDA0899F
:1058600040F0020002E0A08920F00200A08170BD9B
:1058700070B50446BE480D46844211D0BD488442EE
:105880000ED0BD4884420BD0BC48844208D0BC48EE
:10589000844205D040F22621AFF29010FAF742FD83
:1058A0003DB1202D05D040F22721AFF2A010FAF72C
:1058B00039FD208A20F020002082208A284320827F
:1058C00070BD70B50446AA480D46844211D0A9485F
:1058D00084420ED0A84884420BD0A848844208D005
:1058E000A748844205D040F23921AFF2E010FAF720
:1058F00019FD5DB1012D05D040F23A21AFF2F4104F
:10590000FAF710FD208A40F4804002E0208A20F45B
:105910008040208270BD70B5044695480D46844293
:1059200011D0944884420ED0934884420BD09348BF
:10593000844208D09248844205D040F25321AFF20D
:105940003420FAF7EFFCB5F5007F05D34FF415715D
:10595000AFF24820FAF7E6FCC5F30800A08070BD5E
:1059600010B504468248844211D0824884420ED049
:10597000814884420BD08148844208D080488442C8
:1059800005D04FF41971AFF27C20FAF7CBFCA08858
:10599000C0F3080010BD10B504467548844211D00C
:1059A000744884420ED0744884420BD073488442B9
:1059B00008D07348844205D04FF41D71AFF2B42073
:1059C000FAF7B0FCA08940F00100A08110BD70B5CD
:1059D000044667480D4684420BD06648844208D08E
:1059E0006548844205D04FF42171AFF2E020FAF708
:1059F00099FC208BC0B22083208B40EA05202083B5
:105A000070BD70B504465A480D46844211D05948BD
:105A100084420ED0584884420BD05848844208D063
:105A20005748844205D04FF42671AFF22030FAF780
:105A300079FC208B00F47F402083208B2843208337
:105A400070BD70B504464A480D4684420BD04948A3
:105A5000844208D04848844205D040F2AB21AFF2DE
:105A60005430FAF75FFC5DB1012D05D04FF42B7176
:105A7000AFF26830FAF756FCA08A40F0200002E04E
:105A8000A08A20F02000A08270BD70B5044638487E
:105A90000D4684420BD03748844208D036488442B1
:105AA00005D04FF43171AFF29C30FAF73BFC5DB199
:105AB000012D05D040F2C521AFF2B030FAF732FC2B
:105AC000A08A40F0100002E0A08A20F01000A0821E
:105AD00070BD70B5044626480D46844211D0254855
