:020000040800F2
:10000000887F002021020008170400080F04000860
:10001000130400087B0300087B06000800000000B2
:10002000000000000000000000000000890100083E
:100030007F03000800000000CD010008390500081A
:100040003B0200083B0200083B0200083B0200089C
:100050003B0200083B0200083B0200083B0200088C
:100060003B0200083B0200083B0200083B0200087C
:100070003B0200083B0200083B0200083B0200086C
:100080003B0200083B0200083B0200083B0200085C
:100090003B0200083B0200083B0200088103000805
:1000A0003B0200083B0200083B0200083B0200083C
:1000B000D905000815060008510600083B02000893
:1000C0003B0200083B0200083B0200083B0200081C
:1000D0003B0200083B0200083B0200083B0200080C
:1000E0003B0200083B0200083B02000800F002F857
:1000F00000F03AF80AA090E8000C82448344AAF188
:100100000107DA4501D100F02FF8AFF2090EBAE885
:100110000F0013F0010F18BFFB1A43F0010318473B
:10012000D00F0000F00F0000103A24BF78C878C14B
:10013000FAD8520724BF30C830C144BF04680C60ED
:10014000704700000023002400250026103A28BF35
:1001500078C1FBD8520728BF30C148BF0B60704739
:100160001FB51FBD10B510BD00F0CEF81146FFF74A
:10017000F7FF00F0C9FA00F0ECF803B4FFF7F2FF64
:1001800003BC00F0F3F80000224B19680868B0E8DF
:10019000F00F80F30988BFF36F8F4FF0000080F3FA
:1001A00011884EF00D0E70470000000006480068F0
:1001B000006880F3088862B661B6BFF34F8FBFF363
:1001C0006F8F00DF00BF00BF08ED00E0EFF3098094
:1001D000BFF36F8F0F4B1A6820E9F00F106008B55E
:1001E0004FF0BF0080F31188BFF34F8FBFF36F8FC5
:1001F00000F0B2FD4FF0000080F31188BDE8084028
:1002000019680868B0E8F00F80F30988BFF36F8FB2
:10021000704700BF08000020EFF305807047000022
:100220000948804709480047FEE7FEE7FEE7FEE78A
:10023000FEE7FEE7FEE7FEE7FEE7FEE704480549C6
:10024000054A064B704700006D050008ED000008E8
:1002500088790020887F0020887B0020887B002010
:1002600002F0FF0343EA032242EA024200F005B82B
:100270007047704770474FF000020429C0F01280A9
:1002800010F0030C00F01B80CCF1040CBCF1020F49
:1002900018BF00F8012BA8BF20F8022BA1EB0C011E
:1002A00000F00DB85FEAC17C24BF00F8012B00F814
:1002B000012B48BF00F8012B70474FF0000200B53A
:1002C000134694469646203922BFA0E80C50A0E879
:1002D0000C50B1F12001BFF4F7AF090728BFA0E827
:1002E0000C5048BF0CC05DF804EB890028BF40F8F3
:1002F000042B08BF704748BF20F8022B11F0804F35
:1003000018BF00F8012B7047754600F02BF8AE4679
:1003100005006946534620F00700854618B020B511
:10032000FFF78CFFBDE820404FF000064FF00007BC
:100330004FF000084FF0000B21F00701AC46ACE88D
:10034000C009ACE8C009ACE8C009ACE8C0098D46FA
:10035000704710B50446AFF300802046BDE810405A
:10036000FFF70BBF0048704728790020014918208B
:10037000ABBEFEE726000200704700BFFEE77047F5
:1003800070B5002400BF0FE004EB44010F4A02EBFC
:100390008101486800F022F820B12546284600F087
:1003A000F3FB03E0601CC4B2022CEDD300BF0024B9
:1003B00009E005EB4501054A02EB8101486800F0C0
:1003C00007F8601CC4B2022CF3D370BDB81000084B
:1003D00001490860704700001404014001460020F4
:1003E0000022074B1B6803EA0102054B14331B680C
:1003F0000B4013B10AB1012000E00020704700005B
:10040000000401400AB1016100E04161704700BF92
:10041000FEE700BFFEE7704710B500F001F810BD21
:100420000CB50020019000903F48006840F48030F7
:100430003D49086000BF3C48006800F4003000906F
:100440000198401C0190009818B90198B0F5A06F70
:10045000F1D13548006800F4003010B1012000905F
:1004600001E000200090009801285CD12F4800682E
:1004700040F010002D4908600846006820F0030095
:1004800008600846006840F002000860264840689E
:10049000254948600846406848600846406840F47E
:1004A000806048600846C06A214908401E49C86209
:1004B0000846C06A1F4908431B49C86208460068CD
:1004C00040F08060086000BF1748006800F00060DE
:1004D0000028F9D01448406820F47C101249486084
:1004E0000846406840F4E81048600846006840F05C
:1004F0008070086000BF0C48006800F000700028A1
:10050000F9D00948406820F00300074948600846D0
:10051000406840F00200486000BF0348406800F0B7
:100520000C000828F9D10CBD001002400020024048
:1005300000F0FEFF4406010010B500BFBF2080F3AD
:100540001188BFF34F8FBFF36F8F00BF00F09AFC8D
:1005500018B14FF080500449086000BF002080F3BC
:10056000118800BF10BD000004ED00E010B5164872
:10057000006840F0010014490860084640681349CB
:1005800008401149486008460068114908400E4972
:1005900008600846006820F480200860084640682B
:1005A00020F4FE0048600846006820F0A050086073
:1005B0004FF47F0088600020C862FFF72DFF4FF0E6
:1005C00000600449086010BD001002400000FFF008
:1005D000FFFFF6FE08ED00E010B500240C4A02EB28
:1005E000041291890A4A02EB0412106800F034F8F0
:1005F00060B1002000F0CEFA054A02EB04129189A6
:10060000034A02EB0412106800F023F810BD00004A
:10061000D010000810B500240C4A02EB0412918996
:100620000A4A02EB0412106800F016F860B10120CB
:1006300000F0B0FA054A02EB04129189034A02EB7A
:100640000412106800F005F810BD0000D01000087A
:100650007047CA430282704730B50246002000232B
:100660000024158A05EA0103958905EA010413B1FE
:100670000CB1012000E0002030BD00BFFEE70021EA
:1006800007E042F6E06100BF0A1EA1F1010399B242
:10069000FAD1021EA0F1010398B2F2D17047000016
:1006A00070B5054600240FE00120A040284048B165
:1006B000074A02EBC4029188054A52F8340000222E
:1006C000FFF7A0FE601CC4B2042CEDD370BD000087
:1006D0008810000870B5054600240FE00120A040F6
:1006E000284048B1074A02EBC4029188054A52F8F3
:1006F00034000122FFF786FE601CC4B2042CEDD347
:1007000070BD00008810000800F04AFA00F0EAFA14
:1007100000BFFEE710B5044600F086FA24480068E2
:10072000401C234908602348006840B92148046000
:100730000846006801280DD100F01EF90AE01E48A5
:10074000006838B91B480068C06AE16A884201D86D
:100750001848046019480068401C18490860084699
:100760000068606494F82C100120884014490968DE
:10077000084313490860E16A01EB8101114A02EB69
:100780008100211D00F044FA00F060FA0A48006878
:1007900068B108480068C06AE16A884207D24FF031
:1007A000805009490860BFF34F8FBFF36F8F10BDB2
:1007B0001800002008000020240000203400002041
:1007C000200000206000002004ED00E070B523E070
:1007D00000F0BAFA1348006808B9012000E00020D0
:1007E000054600F0DDFBBDB900F01EFA0D48C068FB
:1007F000C468201D00F0E6F90B480068401E0A4955
:1008000008600A480068401E0849086000F01EFAA7
:10081000204600F00DF800BF044800680028D7D13A
:1008200070BD00000001002018000020140000200E
:1008300010B50446206B00F019FA204600F016FAB5
:1008400010BD000030B54FF4F043174800F0070426
:100850002CB1C01D20F00700134C041B1B1B0246CB
:10086000124C22600024114D6C60D018083820F022
:1008700007000F4C206000240D4D2D686C600C4D5E
:100880002D682C601146441A4C60094C24680C6099
:10089000084D4C682C60084D4C682C604FF00044AB
:1008A000064D2C6030BD00002801002048000020CB
:1008B0005000002058000020540000205C00002060
:1008C00000BFFFF783FF064800680128F9D94FF001
:1008D000805004490860BFF34F8FBFF36F8FF0E77C
:1008E0006000002004ED00E02DE9F05F81460F4636
:1008F00090469A460A9E0C9C4FEA8801A522206BDE
:10090000FFF7AEFCA8F10100216B01EB800B2BF08F
:10091000070B002507E0795D04F134004155785D4F
:1009200000B902E06D1C102DF5D300BF002143205B
:100930000155052E00D30426E662E66400202065FA
:10094000201D00F062F904F1180000F05EF9246146
:10095000C6F10500A06164620020606584F858005B
:1009600052464946584600F0FDF820600B9808B101
:100970000B980460BDE8F09F10B5002407E004EB7D
:1009800084010F4A02EB810000F032F9641C052C4F
:10099000F5D30C4800F02CF90B4800F029F90B486E
:1009A00000F026F90A4800F023F90A4800F020F97F
:1009B00004480949086004480849086010BD00005F
:1009C00060000020C4000020D8000020EC000020BF
:1009D00000010020140100200C0000201000002065
:1009E00010B50146164800E0006803688B42FBD34F
:1009F0000246436813448B4204D143684C68234445
:100A0000436001460A464B6813440468A34211D16F
:100A10000C4C03682468A34208D04B6804686468DF
:100A200023444B6003681B680B6005E0054B1B68A3
:100A30000B6001E003680B60884200D0016010BDCC
:100A400048000020500000200A490968096809B9D7
:100A5000012100E0002121B14FF0FF31064A116071
:100A600006E004490968C968C868034A416811601A
:100A7000704700000C0000203800002000BFBF209D
:100A800080F31188BFF34F8FBFF36F8F00BF00BF9C
:100A9000FEE700002DE9F04105464FF0000800F0A8
:100AA00053F92B48006808B9FFF7CCFE29480068C5
:100AB0002840002847D145B1083505F0070020B18E
:100AC00005F00700C0F108000544002D3BD0224886
:100AD0000068854237D8214E3046046801E026463A
:100AE00024686068A84202D220680028F7D118481C
:100AF0000068844227D0306800F108082068306020
:100B00006068401B102807D967196068401B78602F
:100B100065603846FFF764FF0F4960680968081A86
:100B20000D490860084600680D490968884203D2EB
:100B3000094800680A49086006496068096808436E
:100B400060600020206000F02BFA4046BDE8F08194
:100B5000500000205C0000205400002048000020CD
:100B600058000020001F4FF080730360001F21F029
:100B700001030360001F034B036014380260203838
:100B8000704700007D0A00080121014A1154704796
:100B9000000000200121014A11547047020000208A
:100BA0001CB50020012103464A02CDE9001002A134
:100BB000034800F037F91CBD4C65645461736B0049
:100BC000C90C000801460A69D1E901309860D1E9F1
:100BD000010358605068884201D188685060002045
:100BE00008611068401E10601068704700BFFEE783
:100BF00000F1080141604FF0FF31816000F1080110
:100C0000C1600161002101607047002101617047EE
:100C100042684A6093688B6093685960916008618C
:100C200003685B1C0360704700BFBF2080F311881E
:100C3000BFF34F8FBFF36F8F00BF03480068401CA6
:100C40000149086070470000440000200648006821
:100C5000401E054908600846006820B9002080F35E
:100C6000118800BF00BF70474400002070B50646E1
:100C70003546D6B1083D2C460C49606809680840E5
:100C800098B1206888B9094960680968884360603C
:100C900000F05AF806496068096808440449086089
:100CA0002046FFF79DFE00F07BF970BD5C00002040
:100CB0005400002003484FF0E021486107200861FC
:100CC000704700003F1901000BE00120FFF702FD13
:100CD000C820FFF7D4FC0120FFF7E2FCC820FFF793
:100CE000CEFCF2E71CB5114800210B468022CDE96D
:100CF00000100FA1104800F095F80446012C14D103
:100D000000BFBF2080F31188BFF34F8FBFF36F8FF9
:100D100000BF4FF0FF300949086001200849086012
:100D200000200849086000F063F81CBD3C0000206A
:100D300049444C4500000000C1080008380000206C
:100D4000240000201C00002002480068401C0149CB
:100D5000086070474000002070B52048006818B156
:100D600001201F49086038E000201D4908601D4827
:100D70000068046B4FF0A5352068B0F1A53F0BD19A
:100D80006068B0F1A53F07D1A068B0F1A53F03D1DD
:100D9000E068B0F1A53F05D0124801683431006821
:100DA000FFF724FF10480068B0FA80F0C0F11F017F
:100DB00001EB81020D4B03EB8200426852684260F6
:100DC00000F108024368934202D1426852684260CF
:100DD0004268D268034B1A6000BF70BD400000201B
:100DE0002C000020080000202000002060000020CF
:100DF00010B50A48006840F47F00084908600846BA
:100E0000006840F07F400860FFF754FF002004496D
:100E10000860FFF7CBF9002010BD000020ED00E0D6
:100E2000440000202DE9FF4F85B0804689461746D3
:100E3000DDE912ABB800FFF72DFE064656B15C2087
:100E4000FFF728FE04460CB1266304E03046FFF7A6
:100E50000DFF00E000247CB10020CDE900ABCDE91E
:100E600002403A4649464046089BFFF73DFD204672
:100E7000FFF750FC012501E04FF0FF35284609B08F
:100E8000BDE8F08F2DE9F04100273A4800680028BE
:100E900063D139480068451C374805608DB937482B
:100EA000D0F8008036480068344908603448C0F8FB
:100EB000008034480068401C32490860FFF7C4FDD8
:100EC00000BF3148006885423BD300BF2B48006813
:100ED000006808B9012000E0002020B14FF0FF3089
:100EE000294908602CE025480068C068C468666825
:100EF000B54202D22448066022E0201DFFF762FEC0
:100F0000A06A18B104F11800FFF75CFE94F82C10E9
:100F1000012088401D49096808431C490860E16AAE
:100F200001EB81011A4A02EB8100211DFFF770FEDF
:100F30001849E06A0968C96A8842C7D30127C5E72A
:100F400000BF14480068C06A00EB8000104951F8E7
:100F50002000012800D9012704E00F480068401C48
:100F60000D4908600D48006800B101273846BDE80A
:100F7000F0810000400000201C0000200C00002038
:100F80001000002030000020380000202000002049
:100F90006000002008000020280000202C00002015
:100FA00070B500240026FFF73FFE2E480068401E63
:100FB0002C4908600846006800284FD12A4800687C
:100FC00000284BD024E02948C068C46804F1180008
:100FD000FFF7F8FD201DFFF7F5FD94F82C10012018
:100FE000884023490968084321490860E16A01EB08
:100FF0008101204A02EB8100211DFFF709FE1E49F5
:10100000E06A0968C96A884202D301201B49086066
:101010001648006808B9012000E000200028D2D05E
:101020000CB1FFF711FD1648056865B100BFFFF769
:1010300029FF10B10120114908606D1E002DF6D165
:1010400000200F4908600D48006838B101263007BC
:101050000C490860BFF34F8FBFF36F8FFFF7F6FDAA
:10106000304670BD4000002018000020EC00002039
:101070002000002060000020080000202C0000203C
:101080002800002004ED00E00014014004000210DC
:10109000001401400800021000140140100002106A
:1010A0000014014080000210000C014000010148C2
:1010B000000C01400002014801080000000100008E
:1010C000000C01000109000000020000000C0100FA
:1010D0000000004088131F1C0000000001000100F8
:1010E0000004004088131F1C0000000001000100E4
:1010F0001011000800000020600000002801000816
:101100007011000860000020287F000044010008E2
:1011100000000000000000000000000000000000CF
:1011200000000000000000000000000000000000BF
:1011300000000000000000000000000000000000AF
:10114000000000000000000000000000000000009F
:1011500000000000AAAAAAAA0000000000000000E7
:10116000000000000000000000000000000000007F
:04000005080000ED02
:00000001FF
